{
    "contractName": "UnilevelSystem",
    "abi": [
        {
            "inputs": [],
            "stateMutability": "nonpayable",
            "type": "constructor"
        },
        {
            "anonymous": false,
            "inputs": [
                {
                    "indexed": true,
                    "internalType": "address",
                    "name": "admin",
                    "type": "address"
                }
            ],
            "name": "AdminRemoved",
            "type": "event"
        },
        {
            "anonymous": false,
            "inputs": [
                {
                    "indexed": true,
                    "internalType": "address",
                    "name": "admin",
                    "type": "address"
                }
            ],
            "name": "NewAdmin",
            "type": "event"
        },
        {
            "anonymous": false,
            "inputs": [
                {
                    "indexed": true,
                    "internalType": "address",
                    "name": "previousOwner",
                    "type": "address"
                },
                {
                    "indexed": true,
                    "internalType": "address",
                    "name": "newOwner",
                    "type": "address"
                }
            ],
            "name": "OwnershipTransferred",
            "type": "event"
        },
        {
            "stateMutability": "payable",
            "type": "fallback"
        },
        {
            "inputs": [
                {
                    "internalType": "address",
                    "name": "_tokenTRC20",
                    "type": "address"
                }
            ],
            "name": "ChangeTokenPrincipal",
            "outputs": [
                {
                    "internalType": "bool",
                    "name": "",
                    "type": "bool"
                }
            ],
            "stateMutability": "nonpayable",
            "type": "function"
        },
        {
            "inputs": [],
            "name": "MIN_RETIRO",
            "outputs": [
                {
                    "internalType": "uint256",
                    "name": "",
                    "type": "uint256"
                }
            ],
            "stateMutability": "view",
            "type": "function"
        },
        {
            "inputs": [],
            "name": "PRECIO_BLOCK",
            "outputs": [
                {
                    "internalType": "uint256",
                    "name": "",
                    "type": "uint256"
                }
            ],
            "stateMutability": "view",
            "type": "function"
        },
        {
            "inputs": [],
            "name": "activerFee",
            "outputs": [
                {
                    "internalType": "uint256",
                    "name": "",
                    "type": "uint256"
                }
            ],
            "stateMutability": "view",
            "type": "function"
        },
        {
            "inputs": [
                {
                    "internalType": "bool[]",
                    "name": "old",
                    "type": "bool[]"
                }
            ],
            "name": "actualizarArrayBool",
            "outputs": [
                {
                    "internalType": "bool[]",
                    "name": "",
                    "type": "bool[]"
                }
            ],
            "stateMutability": "pure",
            "type": "function"
        },
        {
            "inputs": [
                {
                    "internalType": "uint256[]",
                    "name": "old",
                    "type": "uint256[]"
                }
            ],
            "name": "actualizarArrayUint256",
            "outputs": [
                {
                    "internalType": "uint256[]",
                    "name": "",
                    "type": "uint256[]"
                }
            ],
            "stateMutability": "pure",
            "type": "function"
        },
        {
            "inputs": [
                {
                    "internalType": "address[]",
                    "name": "oldNetwork",
                    "type": "address[]"
                }
            ],
            "name": "actualizarNetwork",
            "outputs": [
                {
                    "internalType": "address[]",
                    "name": "",
                    "type": "address[]"
                }
            ],
            "stateMutability": "pure",
            "type": "function"
        },
        {
            "inputs": [
                {
                    "internalType": "address",
                    "name": "",
                    "type": "address"
                }
            ],
            "name": "addressToId",
            "outputs": [
                {
                    "internalType": "uint256",
                    "name": "",
                    "type": "uint256"
                }
            ],
            "stateMutability": "view",
            "type": "function"
        },
        {
            "inputs": [
                {
                    "internalType": "address",
                    "name": "",
                    "type": "address"
                }
            ],
            "name": "admin",
            "outputs": [
                {
                    "internalType": "bool",
                    "name": "",
                    "type": "bool"
                }
            ],
            "stateMutability": "view",
            "type": "function"
        },
        {
            "inputs": [
                {
                    "internalType": "address[]",
                    "name": "network",
                    "type": "address[]"
                }
            ],
            "name": "allnetwork",
            "outputs": [
                {
                    "internalType": "address[]",
                    "name": "",
                    "type": "address[]"
                }
            ],
            "stateMutability": "view",
            "type": "function"
        },
        {
            "inputs": [
                {
                    "internalType": "address",
                    "name": "_user",
                    "type": "address"
                },
                {
                    "internalType": "uint256",
                    "name": "_bloks",
                    "type": "uint256"
                },
                {
                    "internalType": "bool",
                    "name": "_infinity",
                    "type": "bool"
                }
            ],
            "name": "asignarBloke",
            "outputs": [
                {
                    "internalType": "bool",
                    "name": "",
                    "type": "bool"
                }
            ],
            "stateMutability": "nonpayable",
            "type": "function"
        },
        {
            "inputs": [
                {
                    "internalType": "address",
                    "name": "_user",
                    "type": "address"
                },
                {
                    "internalType": "uint256",
                    "name": "_bloks",
                    "type": "uint256"
                }
            ],
            "name": "asignarBlokePago",
            "outputs": [
                {
                    "internalType": "bool",
                    "name": "",
                    "type": "bool"
                }
            ],
            "stateMutability": "nonpayable",
            "type": "function"
        },
        {
            "inputs": [
                {
                    "internalType": "address",
                    "name": "_user",
                    "type": "address"
                },
                {
                    "internalType": "address",
                    "name": "_sponsor",
                    "type": "address"
                }
            ],
            "name": "asignarMembership",
            "outputs": [
                {
                    "internalType": "bool",
                    "name": "",
                    "type": "bool"
                }
            ],
            "stateMutability": "nonpayable",
            "type": "function"
        },
        {
            "inputs": [
                {
                    "internalType": "uint256",
                    "name": "",
                    "type": "uint256"
                }
            ],
            "name": "baserange",
            "outputs": [
                {
                    "internalType": "bool",
                    "name": "",
                    "type": "bool"
                }
            ],
            "stateMutability": "view",
            "type": "function"
        },
        {
            "inputs": [],
            "name": "baserangelength",
            "outputs": [
                {
                    "internalType": "uint256",
                    "name": "",
                    "type": "uint256"
                }
            ],
            "stateMutability": "view",
            "type": "function"
        },
        {
            "inputs": [
                {
                    "internalType": "uint256",
                    "name": "",
                    "type": "uint256"
                }
            ],
            "name": "blockesRango",
            "outputs": [
                {
                    "internalType": "uint256",
                    "name": "",
                    "type": "uint256"
                }
            ],
            "stateMutability": "view",
            "type": "function"
        },
        {
            "inputs": [
                {
                    "internalType": "uint256",
                    "name": "_bloks",
                    "type": "uint256"
                }
            ],
            "name": "buyBlocks",
            "outputs": [],
            "stateMutability": "nonpayable",
            "type": "function"
        },
        {
            "inputs": [
                {
                    "internalType": "address",
                    "name": "yo",
                    "type": "address"
                },
                {
                    "internalType": "uint256",
                    "name": "_largo",
                    "type": "uint256"
                }
            ],
            "name": "column",
            "outputs": [
                {
                    "internalType": "address[]",
                    "name": "",
                    "type": "address[]"
                }
            ],
            "stateMutability": "view",
            "type": "function"
        },
        {
            "inputs": [
                {
                    "internalType": "address",
                    "name": "yo",
                    "type": "address"
                }
            ],
            "name": "columnHijos",
            "outputs": [
                {
                    "internalType": "address[]",
                    "name": "",
                    "type": "address[]"
                }
            ],
            "stateMutability": "view",
            "type": "function"
        },
        {
            "inputs": [
                {
                    "internalType": "bool",
                    "name": "_true_false",
                    "type": "bool"
                }
            ],
            "name": "controlWitdrawl",
            "outputs": [
                {
                    "internalType": "bool",
                    "name": "",
                    "type": "bool"
                }
            ],
            "stateMutability": "nonpayable",
            "type": "function"
        },
        {
            "inputs": [
                {
                    "internalType": "address",
                    "name": "_user",
                    "type": "address"
                },
                {
                    "internalType": "bool",
                    "name": "_infinity",
                    "type": "bool"
                }
            ],
            "name": "depositos",
            "outputs": [
                {
                    "internalType": "uint256[]",
                    "name": "",
                    "type": "uint256[]"
                },
                {
                    "internalType": "uint256[]",
                    "name": "",
                    "type": "uint256[]"
                },
                {
                    "internalType": "bool[]",
                    "name": "",
                    "type": "bool[]"
                },
                {
                    "internalType": "uint256",
                    "name": "",
                    "type": "uint256"
                }
            ],
            "stateMutability": "view",
            "type": "function"
        },
        {
            "inputs": [],
            "name": "descuento",
            "outputs": [
                {
                    "internalType": "uint256",
                    "name": "",
                    "type": "uint256"
                }
            ],
            "stateMutability": "view",
            "type": "function"
        },
        {
            "inputs": [],
            "name": "dias",
            "outputs": [
                {
                    "internalType": "uint256",
                    "name": "",
                    "type": "uint256"
                }
            ],
            "stateMutability": "view",
            "type": "function"
        },
        {
            "inputs": [],
            "name": "duracionMembership",
            "outputs": [
                {
                    "internalType": "uint256",
                    "name": "",
                    "type": "uint256"
                }
            ],
            "stateMutability": "view",
            "type": "function"
        },
        {
            "inputs": [
                {
                    "internalType": "uint256",
                    "name": "",
                    "type": "uint256"
                }
            ],
            "name": "gananciasRango",
            "outputs": [
                {
                    "internalType": "uint256",
                    "name": "",
                    "type": "uint256"
                }
            ],
            "stateMutability": "view",
            "type": "function"
        },
        {
            "inputs": [
                {
                    "internalType": "address",
                    "name": "",
                    "type": "address"
                },
                {
                    "internalType": "uint256",
                    "name": "",
                    "type": "uint256"
                }
            ],
            "name": "hijo",
            "outputs": [
                {
                    "internalType": "address",
                    "name": "",
                    "type": "address"
                }
            ],
            "stateMutability": "view",
            "type": "function"
        },
        {
            "inputs": [
                {
                    "internalType": "uint256",
                    "name": "",
                    "type": "uint256"
                }
            ],
            "name": "idToAddress",
            "outputs": [
                {
                    "internalType": "address",
                    "name": "",
                    "type": "address"
                }
            ],
            "stateMutability": "view",
            "type": "function"
        },
        {
            "inputs": [
                {
                    "internalType": "uint256",
                    "name": "",
                    "type": "uint256"
                }
            ],
            "name": "infinity",
            "outputs": [
                {
                    "internalType": "uint256",
                    "name": "",
                    "type": "uint256"
                }
            ],
            "stateMutability": "view",
            "type": "function"
        },
        {
            "inputs": [],
            "name": "inversiones",
            "outputs": [
                {
                    "internalType": "uint256",
                    "name": "",
                    "type": "uint256"
                }
            ],
            "stateMutability": "view",
            "type": "function"
        },
        {
            "inputs": [
                {
                    "internalType": "address",
                    "name": "",
                    "type": "address"
                }
            ],
            "name": "investors",
            "outputs": [
                {
                    "internalType": "bool",
                    "name": "registered",
                    "type": "bool"
                },
                {
                    "internalType": "uint256",
                    "name": "membership",
                    "type": "uint256"
                },
                {
                    "internalType": "uint256",
                    "name": "balanceRef",
                    "type": "uint256"
                },
                {
                    "internalType": "uint256",
                    "name": "totalRef",
                    "type": "uint256"
                },
                {
                    "internalType": "uint256",
                    "name": "invested",
                    "type": "uint256"
                },
                {
                    "internalType": "uint256",
                    "name": "paidAt",
                    "type": "uint256"
                },
                {
                    "internalType": "uint256",
                    "name": "paidAt2",
                    "type": "uint256"
                },
                {
                    "internalType": "uint256",
                    "name": "withdrawn",
                    "type": "uint256"
                },
                {
                    "internalType": "uint256",
                    "name": "directos",
                    "type": "uint256"
                },
                {
                    "internalType": "string",
                    "name": "data",
                    "type": "string"
                },
                {
                    "internalType": "uint256",
                    "name": "blokesDirectos",
                    "type": "uint256"
                }
            ],
            "stateMutability": "view",
            "type": "function"
        },
        {
            "inputs": [],
            "name": "lastUserId",
            "outputs": [
                {
                    "internalType": "uint256",
                    "name": "",
                    "type": "uint256"
                }
            ],
            "stateMutability": "view",
            "type": "function"
        },
        {
            "inputs": [
                {
                    "internalType": "address payable",
                    "name": "_newadmin",
                    "type": "address"
                }
            ],
            "name": "makeNewAdmin",
            "outputs": [],
            "stateMutability": "nonpayable",
            "type": "function"
        },
        {
            "inputs": [
                {
                    "internalType": "address payable",
                    "name": "_oldadmin",
                    "type": "address"
                }
            ],
            "name": "makeRemoveAdmin",
            "outputs": [],
            "stateMutability": "nonpayable",
            "type": "function"
        },
        {
            "inputs": [],
            "name": "newRecompensa",
            "outputs": [],
            "stateMutability": "nonpayable",
            "type": "function"
        },
        {
            "inputs": [],
            "name": "onOffWitdrawl",
            "outputs": [
                {
                    "internalType": "bool",
                    "name": "",
                    "type": "bool"
                }
            ],
            "stateMutability": "view",
            "type": "function"
        },
        {
            "inputs": [],
            "name": "owner",
            "outputs": [
                {
                    "internalType": "address payable",
                    "name": "",
                    "type": "address"
                }
            ],
            "stateMutability": "view",
            "type": "function"
        },
        {
            "inputs": [
                {
                    "internalType": "address",
                    "name": "",
                    "type": "address"
                }
            ],
            "name": "padre",
            "outputs": [
                {
                    "internalType": "address",
                    "name": "",
                    "type": "address"
                }
            ],
            "stateMutability": "view",
            "type": "function"
        },
        {
            "inputs": [],
            "name": "personas",
            "outputs": [
                {
                    "internalType": "uint256",
                    "name": "",
                    "type": "uint256"
                }
            ],
            "stateMutability": "view",
            "type": "function"
        },
        {
            "inputs": [],
            "name": "porcent",
            "outputs": [
                {
                    "internalType": "uint256",
                    "name": "",
                    "type": "uint256"
                }
            ],
            "stateMutability": "view",
            "type": "function"
        },
        {
            "inputs": [
                {
                    "internalType": "uint256",
                    "name": "",
                    "type": "uint256"
                }
            ],
            "name": "porcientos",
            "outputs": [
                {
                    "internalType": "uint256",
                    "name": "",
                    "type": "uint256"
                }
            ],
            "stateMutability": "view",
            "type": "function"
        },
        {
            "inputs": [],
            "name": "precioRegistro",
            "outputs": [
                {
                    "internalType": "uint256",
                    "name": "",
                    "type": "uint256"
                }
            ],
            "stateMutability": "view",
            "type": "function"
        },
        {
            "inputs": [
                {
                    "internalType": "uint256",
                    "name": "",
                    "type": "uint256"
                }
            ],
            "name": "primervez",
            "outputs": [
                {
                    "internalType": "uint256",
                    "name": "",
                    "type": "uint256"
                }
            ],
            "stateMutability": "view",
            "type": "function"
        },
        {
            "inputs": [
                {
                    "internalType": "uint256",
                    "name": "",
                    "type": "uint256"
                }
            ],
            "name": "puntosRango",
            "outputs": [
                {
                    "internalType": "uint256",
                    "name": "",
                    "type": "uint256"
                }
            ],
            "stateMutability": "view",
            "type": "function"
        },
        {
            "inputs": [
                {
                    "internalType": "address",
                    "name": "",
                    "type": "address"
                },
                {
                    "internalType": "uint256",
                    "name": "",
                    "type": "uint256"
                }
            ],
            "name": "rangoReclamado",
            "outputs": [
                {
                    "internalType": "bool",
                    "name": "",
                    "type": "bool"
                }
            ],
            "stateMutability": "view",
            "type": "function"
        },
        {
            "inputs": [],
            "name": "redimBNB",
            "outputs": [
                {
                    "internalType": "uint256",
                    "name": "",
                    "type": "uint256"
                }
            ],
            "stateMutability": "nonpayable",
            "type": "function"
        },
        {
            "inputs": [
                {
                    "internalType": "uint256",
                    "name": "_value",
                    "type": "uint256"
                }
            ],
            "name": "redimTokenPrincipal02",
            "outputs": [
                {
                    "internalType": "uint256",
                    "name": "",
                    "type": "uint256"
                }
            ],
            "stateMutability": "nonpayable",
            "type": "function"
        },
        {
            "inputs": [
                {
                    "internalType": "address",
                    "name": "_sponsor",
                    "type": "address"
                },
                {
                    "internalType": "string",
                    "name": "_datos",
                    "type": "string"
                }
            ],
            "name": "registro",
            "outputs": [],
            "stateMutability": "nonpayable",
            "type": "function"
        },
        {
            "inputs": [
                {
                    "internalType": "uint256",
                    "name": "_descuento",
                    "type": "uint256"
                }
            ],
            "name": "setDescuento",
            "outputs": [
                {
                    "internalType": "bool",
                    "name": "",
                    "type": "bool"
                }
            ],
            "stateMutability": "nonpayable",
            "type": "function"
        },
        {
            "inputs": [
                {
                    "internalType": "uint256",
                    "name": "_numerodeinverionessinganancia",
                    "type": "uint256"
                }
            ],
            "name": "setInversiones",
            "outputs": [
                {
                    "internalType": "uint256",
                    "name": "",
                    "type": "uint256"
                }
            ],
            "stateMutability": "nonpayable",
            "type": "function"
        },
        {
            "inputs": [
                {
                    "internalType": "uint256",
                    "name": "_min",
                    "type": "uint256"
                }
            ],
            "name": "setMIN_RETIRO",
            "outputs": [
                {
                    "internalType": "uint256",
                    "name": "",
                    "type": "uint256"
                }
            ],
            "stateMutability": "nonpayable",
            "type": "function"
        },
        {
            "inputs": [
                {
                    "internalType": "uint256",
                    "name": "_nivel",
                    "type": "uint256"
                },
                {
                    "internalType": "uint256",
                    "name": "_value",
                    "type": "uint256"
                }
            ],
            "name": "setPorcientos",
            "outputs": [
                {
                    "internalType": "uint256[]",
                    "name": "",
                    "type": "uint256[]"
                }
            ],
            "stateMutability": "nonpayable",
            "type": "function"
        },
        {
            "inputs": [
                {
                    "internalType": "uint256",
                    "name": "_nivel",
                    "type": "uint256"
                },
                {
                    "internalType": "uint256",
                    "name": "_value",
                    "type": "uint256"
                }
            ],
            "name": "setPorcientosSalida",
            "outputs": [
                {
                    "internalType": "uint256[]",
                    "name": "",
                    "type": "uint256[]"
                }
            ],
            "stateMutability": "nonpayable",
            "type": "function"
        },
        {
            "inputs": [
                {
                    "internalType": "uint256",
                    "name": "_precio",
                    "type": "uint256"
                }
            ],
            "name": "setPrecioRegistro",
            "outputs": [
                {
                    "internalType": "bool",
                    "name": "",
                    "type": "bool"
                }
            ],
            "stateMutability": "nonpayable",
            "type": "function"
        },
        {
            "inputs": [
                {
                    "internalType": "uint256",
                    "name": "_value",
                    "type": "uint256"
                }
            ],
            "name": "setPriceBlock",
            "outputs": [
                {
                    "internalType": "bool",
                    "name": "",
                    "type": "bool"
                }
            ],
            "stateMutability": "nonpayable",
            "type": "function"
        },
        {
            "inputs": [
                {
                    "internalType": "uint256",
                    "name": "_nivel",
                    "type": "uint256"
                },
                {
                    "internalType": "uint256",
                    "name": "_value",
                    "type": "uint256"
                }
            ],
            "name": "setPrimeravezPorcientos",
            "outputs": [
                {
                    "internalType": "uint256[]",
                    "name": "",
                    "type": "uint256[]"
                }
            ],
            "stateMutability": "nonpayable",
            "type": "function"
        },
        {
            "inputs": [
                {
                    "internalType": "bool[]",
                    "name": "_baserange",
                    "type": "bool[]"
                },
                {
                    "internalType": "uint256[]",
                    "name": "_gananciasRango",
                    "type": "uint256[]"
                },
                {
                    "internalType": "uint256[]",
                    "name": "_puntosRango",
                    "type": "uint256[]"
                }
            ],
            "name": "setRangos",
            "outputs": [
                {
                    "internalType": "bool",
                    "name": "",
                    "type": "bool"
                }
            ],
            "stateMutability": "nonpayable",
            "type": "function"
        },
        {
            "inputs": [
                {
                    "internalType": "uint256",
                    "name": "_porcentaje",
                    "type": "uint256"
                }
            ],
            "name": "setRetorno",
            "outputs": [
                {
                    "internalType": "uint256",
                    "name": "",
                    "type": "uint256"
                }
            ],
            "stateMutability": "nonpayable",
            "type": "function"
        },
        {
            "inputs": [
                {
                    "internalType": "uint256",
                    "name": "_dias",
                    "type": "uint256"
                }
            ],
            "name": "setTiempo",
            "outputs": [
                {
                    "internalType": "uint256",
                    "name": "",
                    "type": "uint256"
                }
            ],
            "stateMutability": "nonpayable",
            "type": "function"
        },
        {
            "inputs": [
                {
                    "internalType": "uint256",
                    "name": "_unidades",
                    "type": "uint256"
                }
            ],
            "name": "setTiempoUnidades",
            "outputs": [
                {
                    "internalType": "uint256",
                    "name": "",
                    "type": "uint256"
                }
            ],
            "stateMutability": "nonpayable",
            "type": "function"
        },
        {
            "inputs": [
                {
                    "internalType": "address[]",
                    "name": "_wallet",
                    "type": "address[]"
                },
                {
                    "internalType": "uint256[]",
                    "name": "_fee",
                    "type": "uint256[]"
                },
                {
                    "internalType": "uint256",
                    "name": "_activerFee",
                    "type": "uint256"
                }
            ],
            "name": "setWalletFee",
            "outputs": [
                {
                    "internalType": "bool",
                    "name": "",
                    "type": "bool"
                }
            ],
            "stateMutability": "nonpayable",
            "type": "function"
        },
        {
            "inputs": [
                {
                    "internalType": "address[]",
                    "name": "_wallets",
                    "type": "address[]"
                },
                {
                    "internalType": "uint256[]",
                    "name": "_valores",
                    "type": "uint256[]"
                }
            ],
            "name": "setWalletstransfers",
            "outputs": [
                {
                    "internalType": "bool",
                    "name": "",
                    "type": "bool"
                }
            ],
            "stateMutability": "nonpayable",
            "type": "function"
        },
        {
            "inputs": [
                {
                    "internalType": "uint256",
                    "name": "_duracionMembership",
                    "type": "uint256"
                }
            ],
            "name": "setduracionMembership",
            "outputs": [
                {
                    "internalType": "bool",
                    "name": "",
                    "type": "bool"
                }
            ],
            "stateMutability": "nonpayable",
            "type": "function"
        },
        {
            "inputs": [],
            "name": "tiempo",
            "outputs": [
                {
                    "internalType": "uint256",
                    "name": "",
                    "type": "uint256"
                }
            ],
            "stateMutability": "view",
            "type": "function"
        },
        {
            "inputs": [],
            "name": "tokenPricipal",
            "outputs": [
                {
                    "internalType": "address",
                    "name": "",
                    "type": "address"
                }
            ],
            "stateMutability": "view",
            "type": "function"
        },
        {
            "inputs": [],
            "name": "totalInvested",
            "outputs": [
                {
                    "internalType": "uint256",
                    "name": "",
                    "type": "uint256"
                }
            ],
            "stateMutability": "view",
            "type": "function"
        },
        {
            "inputs": [],
            "name": "totalInvestors",
            "outputs": [
                {
                    "internalType": "uint256",
                    "name": "",
                    "type": "uint256"
                }
            ],
            "stateMutability": "view",
            "type": "function"
        },
        {
            "inputs": [],
            "name": "totalRange",
            "outputs": [
                {
                    "internalType": "uint256",
                    "name": "",
                    "type": "uint256"
                }
            ],
            "stateMutability": "view",
            "type": "function"
        },
        {
            "inputs": [],
            "name": "totalRangeWitdrawl",
            "outputs": [
                {
                    "internalType": "uint256",
                    "name": "",
                    "type": "uint256"
                }
            ],
            "stateMutability": "view",
            "type": "function"
        },
        {
            "inputs": [],
            "name": "totalRefRewards",
            "outputs": [
                {
                    "internalType": "uint256",
                    "name": "",
                    "type": "uint256"
                }
            ],
            "stateMutability": "view",
            "type": "function"
        },
        {
            "inputs": [],
            "name": "totalRefWitdrawl",
            "outputs": [
                {
                    "internalType": "uint256",
                    "name": "",
                    "type": "uint256"
                }
            ],
            "stateMutability": "view",
            "type": "function"
        },
        {
            "inputs": [],
            "name": "totalRoiWitdrawl",
            "outputs": [
                {
                    "internalType": "uint256",
                    "name": "",
                    "type": "uint256"
                }
            ],
            "stateMutability": "view",
            "type": "function"
        },
        {
            "inputs": [],
            "name": "totalTeamWitdrawl",
            "outputs": [
                {
                    "internalType": "uint256",
                    "name": "",
                    "type": "uint256"
                }
            ],
            "stateMutability": "view",
            "type": "function"
        },
        {
            "inputs": [
                {
                    "internalType": "address payable",
                    "name": "newOwner",
                    "type": "address"
                }
            ],
            "name": "transferOwnership",
            "outputs": [],
            "stateMutability": "nonpayable",
            "type": "function"
        },
        {
            "inputs": [],
            "name": "unidades",
            "outputs": [
                {
                    "internalType": "uint256",
                    "name": "",
                    "type": "uint256"
                }
            ],
            "stateMutability": "view",
            "type": "function"
        },
        {
            "inputs": [
                {
                    "internalType": "string",
                    "name": "_datos",
                    "type": "string"
                }
            ],
            "name": "updateData",
            "outputs": [],
            "stateMutability": "nonpayable",
            "type": "function"
        },
        {
            "inputs": [
                {
                    "internalType": "uint256",
                    "name": "",
                    "type": "uint256"
                }
            ],
            "name": "usdtRetirado",
            "outputs": [
                {
                    "internalType": "uint256",
                    "name": "",
                    "type": "uint256"
                }
            ],
            "stateMutability": "view",
            "type": "function"
        },
        {
            "inputs": [
                {
                    "internalType": "uint256",
                    "name": "",
                    "type": "uint256"
                }
            ],
            "name": "valor",
            "outputs": [
                {
                    "internalType": "uint256",
                    "name": "",
                    "type": "uint256"
                }
            ],
            "stateMutability": "view",
            "type": "function"
        },
        {
            "inputs": [
                {
                    "internalType": "uint256",
                    "name": "",
                    "type": "uint256"
                }
            ],
            "name": "valorFee",
            "outputs": [
                {
                    "internalType": "uint256",
                    "name": "",
                    "type": "uint256"
                }
            ],
            "stateMutability": "view",
            "type": "function"
        },
        {
            "inputs": [
                {
                    "internalType": "uint256",
                    "name": "",
                    "type": "uint256"
                }
            ],
            "name": "wallet",
            "outputs": [
                {
                    "internalType": "address",
                    "name": "",
                    "type": "address"
                }
            ],
            "stateMutability": "view",
            "type": "function"
        },
        {
            "inputs": [
                {
                    "internalType": "uint256",
                    "name": "",
                    "type": "uint256"
                }
            ],
            "name": "walletFee",
            "outputs": [
                {
                    "internalType": "address",
                    "name": "",
                    "type": "address"
                }
            ],
            "stateMutability": "view",
            "type": "function"
        },
        {
            "inputs": [],
            "name": "withdraw",
            "outputs": [],
            "stateMutability": "nonpayable",
            "type": "function"
        },
        {
            "inputs": [],
            "name": "withdraw2",
            "outputs": [],
            "stateMutability": "nonpayable",
            "type": "function"
        },
        {
            "inputs": [],
            "name": "withdrawTeam",
            "outputs": [],
            "stateMutability": "nonpayable",
            "type": "function"
        },
        {
            "inputs": [
                {
                    "internalType": "address",
                    "name": "any_user",
                    "type": "address"
                },
                {
                    "internalType": "bool",
                    "name": "_infinity",
                    "type": "bool"
                }
            ],
            "name": "withdrawable",
            "outputs": [
                {
                    "internalType": "uint256",
                    "name": "",
                    "type": "uint256"
                }
            ],
            "stateMutability": "view",
            "type": "function"
        },
        {
            "inputs": [
                {
                    "internalType": "address",
                    "name": "any_user",
                    "type": "address"
                }
            ],
            "name": "withdrawableRange",
            "outputs": [
                {
                    "internalType": "uint256",
                    "name": "amount",
                    "type": "uint256"
                }
            ],
            "stateMutability": "view",
            "type": "function"
        },
        {
            "stateMutability": "payable",
            "type": "receive"
        }
    ],
    "bytecode": "600280547355d398326f99059ff775485246999027b31979556001600160a01b031991821681179092556003805482168317905567d02ab486cedc00006004556802b5e3af16b18800006005908155600680549092169092179055600160075561012060405260326080908152601e60a052601460c052600a60e081905261010052620000909160089190620004a7565b506040805160a081018252600f81526009602082018190526006928201929092526003606082018190526080820152620000cd91906005620004a7565b506040805160a08101825260058082526003602083015260029282019290925260016060820181905260808201526200010a91600a9190620004a7565b506040805161010081018252600080825260208201819052918101829052606081018290526080810182905260a0810182905260c0810182905260e08101919091526200015c90600b906008620004fc565b5060408051610100810182526828a857425466f800008152685150ae84a8cdf00000602082015268cb49b44ba602d80000918101919091526901969368974c05b00000606082015269032d26d12e980b6000006080820152690a968163f0a57b40000060a0820152691fc3842bd1f071c0000060c08201526934f086f3b33b6840000060e0820152620001f490600c906008620005a3565b5060408051610100810182526103e881526107d06020820152611388918101919091526127106060820152614e206080820152620186a060a0820152620493e060c08201526207a12060e08201526200025290600d906008620005ec565b50600e805460ff1916600190811790915561016d600f556103846010556201518060115560f0601255606460135560026014819055601582905560239190915560408051808201909152734490566647735e8cbce0ce96efc8fb91c164859b815273d0f2fcdf7d399205e9709c6d0fbee434335e42dd6020820152620002dc916024919062000631565b506040805180820190915260058152605f602082015262000302906025906002620004a7565b506801a055690d9db800006026556002602755604080516060810182527317a7e5b2d9b5d191f7307e990e630c9dc18e1396815273afe9d039ec7d4409b1b8c2f1556f20843079b7286020820152738dd59f5670e9809c8a800a49d1ff1cea471c53da918101919091526200037c90602890600362000631565b50604080516060810182526046815260086020820152600591810191909152620003ab906029906003620004a7565b50348015620003b957600080fd5b50600080546001600160a01b0319163390811782558152600160208181526040808420805460ff19908116851790915584546001600160a01b03168552601b9092529092208054909216178155601154600f5462000418919062000707565b6200042c90670de0b6b3a764000062000707565b62000438904262000729565b60018201553360009081526020805260409020600b80546200045c92919062000689565b50507f65ce8396b736f5da9d881cc6fbcb11ef9721292dc41ec8c40879fd9edea5744d80546001600160a01b031916339081179091556000908152601f602052604081205562000744565b828054828255906000526020600020908101928215620004ea579160200282015b82811115620004ea578251829060ff16905591602001919060010190620004c8565b50620004f8929150620006da565b5090565b82805482825590600052602060002090601f01602090048101928215620004ea5791602002820160005b838211156200056557835183826101000a81548160ff021916908315150217905550926020019260010160208160000104928301926001030262000526565b8015620005945782816101000a81549060ff021916905560010160208160000104928301926001030262000565565b5050620004f8929150620006da565b828054828255906000526020600020908101928215620004ea579160200282015b82811115620004ea57825182906001600160501b0316905591602001919060010190620005c4565b828054828255906000526020600020908101928215620004ea579160200282015b82811115620004ea578251829062ffffff169055916020019190600101906200060d565b828054828255906000526020600020908101928215620004ea579160200282015b82811115620004ea57825182546001600160a01b0319166001600160a01b0390911617825560209092019160019091019062000652565b82805482825590600052602060002090601f01602090048101928215620004ea57600052602060002091601f016020900482015b82811115620004ea578254825591600101919060010190620006bd565b5b80821115620004f85760008155600101620006db565b634e487b7160e01b600052601160045260246000fd5b6000816000190483118215151615620007245762000724620006f1565b500290565b600082198211156200073f576200073f620006f1565b500190565b6148d780620007546000396000f3fe60806040526004361061047e5760003560e01c80637b0412ed11610253578063b5df6d4411610143578063e7348e8c116100bb578063f2fde38b11610082578063f2fde38b14610e56578063f5c9dbef14610e76578063f90b3f5a14610e8b578063fc5d861514610eab578063fd14d59814610ecb578063ff0b0cc514610ee057005b8063e7348e8c14610ddd578063ea98847b14610df7578063ecdb171f14610e0c578063edf5eb1d14610e21578063eef117fd14610e4157005b8063c17dbdf91161010a578063c17dbdf914610d24578063c40d5dbc14610d44578063cb0e0d7d14610d5a578063cc759ba214610d87578063cfda9ee614610d9d578063db3be1a214610dbd57005b8063b5df6d4414610c96578063b85ea33514610cc3578063bb51f32d14610ce3578063bd9bee1914610cf8578063bfe0e02014610d0e57005b80639b8ff503116101d6578063aaa749c51161019d578063aaa749c514610bca578063ab6db19914610bea578063b139042614610c00578063b17b6e4414610c20578063b35f0a8f14610c40578063b3d9fa0914610c7657005b80639b8ff50314610b2e578063a278133514610b44578063a365528b14610b64578063a77d211914610b94578063a8beb71714610baa57005b8063815374ca1161021a578063815374ca14610a8e57806389b2521c14610aae5780638da5cb5b14610ace5780638f9ef8c114610aee57806398c07d0a14610b0e57005b80637b0412ed146109f55780637db9e9c614610a0b5780637faee04714610a215780637fcc1e3614610a415780638103289214610a6e57005b80634b9b82031161036e57806367f74aab116102f15780636f7bc9be116102b85780636f7bc9be1461092857806370a0966b1461095f57806370d7e3d51461097f5780637251b9ac14610995578063725fc270146109b55780637367b080146109d557005b806367f74aab1461089d57806368446ead146108bd57806369ed1e0a146108dd57806369f4a84b146108fd5780636c5292791461091257005b8063548225221161033557806354822522146107ed5780635d216c601461080d578063625509161461082d57806363a846f81461084d5780636589fa8a1461087d57005b80634b9b82031461076c5780634de1be621461078257806350188c08146107a257806350da983f146107b75780635216aeec146107d757005b806329b8caff11610401578063339640b5116103c8578063339640b5146106cb578063348d4487146106eb5780633ccfd60b1461070157806343bf0bd4146107165780634728f718146107365780634acb72401461074c57005b806329b8caff1461060757806329e1a2431461061d5780632a2d0c471461063d5780632acc82101461068b5780632e8a03cf146106ab57005b80631f5d65fd116104455780631f5d65fd1461056457806321309f211461059157806324de19f2146105b15780632748d29b146105c757806328cca719146105e757005b80631053abb1146104875780631140e85b146104bc57806315e8392b146104ea5780631ce7f99b146105175780631e403c351461053757005b3661048557005b005b34801561049357600080fd5b506104a76104a2366004613fa5565b610ef6565b60405190151581526020015b60405180910390f35b3480156104c857600080fd5b506104dc6104d7366004613fde565b6110c1565b6040519081526020016104b3565b3480156104f657600080fd5b5061050a610505366004613ff7565b6111d9565b6040516104b39190614023565b34801561052357600080fd5b5061050a61053236600461414d565b61126e565b34801561054357600080fd5b50610557610552366004614181565b61132c565b6040516104b391906141de565b34801561057057600080fd5b506104dc61057f366004613fde565b60226020526000908152604090205481565b34801561059d57600080fd5b506104dc6105ac366004613fde565b6113ca565b3480156105bd57600080fd5b506104dc60055481565b3480156105d357600080fd5b506104dc6105e2366004613fde565b6113eb565b3480156105f357600080fd5b506104dc610602366004613fde565b611415565b34801561061357600080fd5b506104dc60155481565b34801561062957600080fd5b506104dc610638366004613fde565b611425565b34801561064957600080fd5b50610673610658366004613fde565b601e602052600090815260409020546001600160a01b031681565b6040516001600160a01b0390911681526020016104b3565b34801561069757600080fd5b506104a76106a6366004613ff7565b611435565b3480156106b757600080fd5b506104a76106c6366004613fde565b611477565b3480156106d757600080fd5b506106736106e6366004613ff7565b6114a1565b3480156106f757600080fd5b506104dc60235481565b34801561070d57600080fd5b506104856114d9565b34801561072257600080fd5b506104a76107313660046142be565b61166d565b34801561074257600080fd5b506104dc60125481565b34801561075857600080fd5b506104a7610767366004613fde565b6116f2565b34801561077857600080fd5b506104dc60115481565b34801561078e57600080fd5b506104dc61079d366004613fde565b61171c565b3480156107ae57600080fd5b506104dc611746565b3480156107c357600080fd5b506104a76107d2366004614345565b611764565b3480156107e357600080fd5b506104dc60165481565b3480156107f957600080fd5b50610557610808366004614181565b6117b8565b34801561081957600080fd5b50610557610828366004614181565b611854565b34801561083957600080fd5b506104dc610848366004613fde565b6118f0565b34801561085957600080fd5b506104a7610868366004614345565b60016020526000908152604090205460ff1681565b34801561088957600080fd5b506104dc610898366004613fde565b611900565b3480156108a957600080fd5b506104a76108b8366004614362565b611925565b3480156108c957600080fd5b506104856108d8366004614413565b611a4d565b3480156108e957600080fd5b506104856108f8366004614345565b611a79565b34801561090957600080fd5b50610485611b03565b34801561091e57600080fd5b506104dc60045481565b34801561093457600080fd5b50610948610943366004614345565b611ec1565b6040516104b39b9a99989796959493929190614447565b34801561096b57600080fd5b5061048561097a366004614345565b611fa8565b34801561098b57600080fd5b506104dc60185481565b3480156109a157600080fd5b506106736109b0366004613fde565b612030565b3480156109c157600080fd5b506104dc6109d0366004613fde565b61205a565b3480156109e157600080fd5b506105576109f03660046144f1565b61206a565b348015610a0157600080fd5b506104dc60135481565b348015610a1757600080fd5b506104dc60265481565b348015610a2d57600080fd5b5061050a610a3c36600461414d565b612114565b348015610a4d57600080fd5b50610a61610a5c366004614525565b612231565b6040516104b3919061458b565b348015610a7a57600080fd5b506104dc610a89366004613fde565b6122e0565b348015610a9a57600080fd5b5061050a610aa9366004614345565b6122f0565b348015610aba57600080fd5b506104dc610ac936600461459e565b6123a7565b348015610ada57600080fd5b50600054610673906001600160a01b031681565b348015610afa57600080fd5b50610485610b093660046145cc565b6123c8565b348015610b1a57600080fd5b506104dc610b29366004614345565b61280a565b348015610b3a57600080fd5b506104dc60195481565b348015610b5057600080fd5b50610673610b5f366004613fde565b612a74565b348015610b7057600080fd5b50610b84610b7f36600461459e565b612a84565b6040516104b3949392919061461b565b348015610ba057600080fd5b506104dc60075481565b348015610bb657600080fd5b506104a7610bc5366004614666565b612c8f565b348015610bd657600080fd5b506104a7610be5366004613fde565b612ce1565b348015610bf657600080fd5b506104dc60105481565b348015610c0c57600080fd5b50600654610673906001600160a01b031681565b348015610c2c57600080fd5b506104a7610c3b3660046146bf565b612d0b565b348015610c4c57600080fd5b50610673610c5b366004614345565b601c602052600090815260409020546001600160a01b031681565b348015610c8257600080fd5b506104a7610c91366004613fde565b612d39565b348015610ca257600080fd5b506104dc610cb1366004613fde565b60216020526000908152604090205481565b348015610ccf57600080fd5b506104dc610cde366004613fde565b612d63565b348015610cef57600080fd5b50610485612d8d565b348015610d0457600080fd5b506104dc60275481565b348015610d1a57600080fd5b506104dc60175481565b348015610d3057600080fd5b50610485610d3f366004613fde565b612f46565b348015610d5057600080fd5b506104dc600f5481565b348015610d6657600080fd5b506104dc610d75366004614345565b601f6020526000908152604090205481565b348015610d9357600080fd5b506104dc60145481565b348015610da957600080fd5b506104a7610db8366004613fde565b613494565b348015610dc957600080fd5b506104a7610dd83660046146dc565b6134c8565b348015610de957600080fd5b50600e546104a79060ff1681565b348015610e0357600080fd5b5061048561351d565b348015610e1857600080fd5b506104dc6136a2565b348015610e2d57600080fd5b506104dc610e3c366004613fde565b61374d565b348015610e4d57600080fd5b506104dc61375d565b348015610e6257600080fd5b50610485610e71366004614345565b61379a565b348015610e8257600080fd5b50600b546104dc565b348015610e9757600080fd5b506104dc610ea6366004613fde565b613828565b348015610eb757600080fd5b506104a7610ec6366004613ff7565b61384d565b348015610ed757600080fd5b506104dc613aae565b348015610eec57600080fd5b506104dc601a5481565b3360009081526001602052604081205460ff16610f1257600080fd5b6001600160a01b038216610f2557600080fd5b6001600160a01b0383166000908152601b60205260409020805460ff1661109057805460ff19166001178155601154600f54610f61919061475e565b610f6b904261477d565b60018201556001600160a01b038481166000908152601c6020908152604080832080546001600160a01b0319169488169485179055928252601b90529081206008810180549192610fbb83614795565b90915550506001600160a01b038481166000908152601d60209081526040822080546001810182559083529082200180546001600160a01b03191692881692909217909155601580549161100e83614795565b90915550506001600160a01b03851660009081526020805260409020600b8054611039929190613d77565b50602380546000908152601e6020908152604080832080546001600160a01b0319166001600160a01b038b169081179091558454908452601f9092528220819055919061108583614795565b9190505550506110b5565b601154600f546110a0919061475e565b81600101546110af919061477d565b60018201555b60019150505b92915050565b600080546001600160a01b0316336001600160a01b0316146110e257600080fd5b6003546040516370a0823160e01b815230600482015283916001600160a01b0316906370a0823190602401602060405180830381865afa15801561112a573d6000803e3d6000fd5b505050506040513d601f19601f8201168201806040525081019061114e91906147b0565b101561115957600080fd5b60035460005460405163a9059cbb60e01b81526001600160a01b0391821660048201526024810185905291169063a9059cbb906044016020604051808303816000875af11580156111ae573d6000803e3d6000fd5b505050506040513d601f19601f820116820180604052508101906111d291906147c9565b5090919050565b60608060005b83811015611266576111f08261126e565b6001600160a01b038087166000908152601c602052604090205482519294501690839083908110611223576112236147e6565b6001600160a01b039283166020918202929092018101919091529581166000908152601c909652604090952054909416938061125e81614795565b9150506111df565b509392505050565b6060600082516001611280919061477d565b6001600160401b0381111561129757611297614070565b6040519080825280602002602001820160405280156112c0578160200160208202803683370190505b50905060005b8351811015611325578381815181106112e1576112e16147e6565b60200260200101518282815181106112fb576112fb6147e6565b6001600160a01b03909216602092830291909101909101528061131d81614795565b9150506112c6565b5092915050565b6000546060906001600160a01b0316336001600160a01b03161461134f57600080fd5b8160098481548110611363576113636147e6565b906000526020600020018190555060098054806020026020016040519081016040528092919081815260200182805480156113bd57602002820191906000526020600020905b8154815260200190600101908083116113a9575b5050505050905092915050565b600d81815481106113da57600080fd5b600091825260209091200154905081565b600080546001600160a01b0316336001600160a01b03161461140c57600080fd5b50601181905590565b600981815481106113da57600080fd5b602581815481106113da57600080fd5b60208052816000526040600020818154811061145057600080fd5b9060005260206000209060209182820401919006915091509054906101000a900460ff1681565b600080546001600160a01b0316336001600160a01b03161461149857600080fd5b50600555600190565b601d60205281600052604060002081815481106114bd57600080fd5b6000918252602090912001546001600160a01b03169150829050565b600e5460ff166114e857600080fd5b336000818152601b60205260408120916115039060006123a7565b6003546040516370a0823160e01b815230600482015291925082916001600160a01b03909116906370a0823190602401602060405180830381865afa158015611550573d6000803e3d6000fd5b505050506040513d601f19601f8201168201806040525081019061157491906147b0565b101561157f57600080fd5b60045481101561158e57600080fd5b6003546001600160a01b031663a9059cbb336115c060646115ba60135487613b1090919063ffffffff16565b90613b49565b6040516001600160e01b031960e085901b1681526001600160a01b03909216600483015260248201526044016020604051808303816000875af115801561160b573d6000803e3d6000fd5b505050506040513d601f19601f8201168201806040525081019061162f91906147c9565b5080826007016000828254611644919061477d565b90915550504260058301556018805482919060009061166490849061477d565b90915550505050565b600080546001600160a01b0316336001600160a01b03161461168e57600080fd5b83516116a190600b906020870190613dd5565b5082516116b590600c906020860190613e75565b5081516116c990600d906020850190613e75565b503360009081526020805260409020600b80546116e7929190613d77565b506001949350505050565b600080546001600160a01b0316336001600160a01b03161461171357600080fd5b50600f55600190565b600080546001600160a01b0316336001600160a01b03161461173d57600080fd5b50600481905590565b600061175f601154601054613b1090919063ffffffff16565b905090565b600080546001600160a01b0316336001600160a01b03161461178557600080fd5b50600380546001600160a01b0383166001600160a01b031991821681179092556006805490911690911790556001919050565b6000546060906001600160a01b0316336001600160a01b0316146117db57600080fd5b81600884815481106117ef576117ef6147e6565b906000526020600020018190555060088054806020026020016040519081016040528092919081815260200182805480156113bd57602002820191906000526020600020908154815260200190600101908083116113a9575050505050905092915050565b6000546060906001600160a01b0316336001600160a01b03161461187757600080fd5b81600a848154811061188b5761188b6147e6565b9060005260206000200181905550600a8054806020026020016040519081016040528092919081815260200182805480156113bd57602002820191906000526020600020908154815260200190600101908083116113a9575050505050905092915050565b602981815481106113da57600080fd5b3360009081526001602052604081205460ff1661191c57600080fd5b50601281905590565b3360009081526001602052604081205460ff1661194157600080fd5b6000831161196a5760405162461bcd60e51b8152600401611961906147fc565b60405180910390fd5b6001600160a01b0384166000908152601b60205260409020805460ff1661199057600080fd5b6000846005546119a0919061475e565b905081600a0160405180608001604052804281526020016119d160646115ba60125487613b1090919063ffffffff16565b81526020016119f060646115ba60125487613b1090919063ffffffff16565b81529515156020968701528154600180820184556000938452928790208251600490920201908155958101518683015560408101516002870155606001516003909501805460ff1916951515959095179094555091949350505050565b336000908152601b6020908152604090912082519091611a74916009840191850190613eb0565b505050565b3360009081526001602052604090205460ff16611a9557600080fd5b6001600160a01b038116611aa857600080fd5b6040516001600160a01b038216907f71614071b88dee5e0b2ae578a9dd7b2ebbe9ae832ba419dc0242cd065a290b6c90600090a26001600160a01b03166000908152600160208190526040909120805460ff19169091179055565b600e5460ff16611b1257600080fd5b6000611b1d3361280a565b905060008111611b2c57600080fd5b336000908152601b60209081526040808320815161018081018352815460ff16151581526001820154938101939093526002810154918301919091526003810154606083015260048101546080830152600581015460a0830152600681015460c0830152600781015460e0830152600881015461010083015260098101805461012084019190611bbb90614833565b80601f0160208091040260200160405190810160405280929190818152602001828054611be790614833565b8015611c345780601f10611c0957610100808354040283529160200191611c34565b820191906000526020600020905b815481529060010190602001808311611c1757829003601f168201915b50505050508152602001600a8201805480602002602001604051908101604052809291908181526020016000905b82821015611cbb576000848152602090819020604080516080810182526004860290920180548352600180820154848601526002820154928401929092526003015460ff16151560608301529083529092019101611c62565b505050508152602001600b82015481525050905060005b600c54811015611a7457600d8181548110611cef57611cef6147e6565b906000526020600020015482610160015110158015611d4b57503360009081526020805260409020805482908110611d2957611d296147e6565b90600052602060002090602091828204019190069054906101000a900460ff16155b15611eaf576003546001600160a01b031663a9059cbb33600c8481548110611d7557611d756147e6565b6000918252602090912001546040516001600160e01b031960e085901b1681526001600160a01b03909216600483015260248201526044016020604051808303816000875af1158015611dcc573d6000803e3d6000fd5b505050506040513d601f19601f82011682018060405250810190611df091906147c9565b50336000908152602080526040902080546001919083908110611e1557611e156147e6565b90600052602060002090602091828204019190066101000a81548160ff021916908315150217905550600c8181548110611e5157611e516147e6565b906000526020600020015460226000601f6000611e6b3390565b6001600160a01b03166001600160a01b031681526020019081526020016000205481526020019081526020016000206000828254611ea9919061477d565b90915550505b80611eb981614795565b915050611cd2565b601b60205260009081526040902080546001820154600283015460038401546004850154600586015460068701546007880154600889015460098a01805460ff909a169a9899979896979596949593949293919291611f1f90614833565b80601f0160208091040260200160405190810160405280929190818152602001828054611f4b90614833565b8015611f985780601f10611f6d57610100808354040283529160200191611f98565b820191906000526020600020905b815481529060010190602001808311611f7b57829003601f168201915b50505050509080600b015490508b565b6000546001600160a01b0316336001600160a01b031614611fc857600080fd5b6001600160a01b038116611fdb57600080fd5b6040516001600160a01b038216907fa3b62bc36326052d97ea62d63c3d60308ed4c3ea8ac079dd8499f1e9c4f80c0f90600090a26001600160a01b03166000908152600160205260409020805460ff19169055565b6024818154811061204057600080fd5b6000918252602090912001546001600160a01b0316905081565b600881815481106113da57600080fd5b606060008251600161207c919061477d565b6001600160401b0381111561209357612093614070565b6040519080825280602002602001820160405280156120bc578160200160208202803683370190505b50905060005b8351811015611325578381815181106120dd576120dd6147e6565b60200260200101518282815181106120f7576120f76147e6565b60209081029190910101528061210c81614795565b9150506120c2565b60606000805b835181101561222957601b6000858381518110612139576121396147e6565b60200260200101516001600160a01b03166001600160a01b0316815260200190815260200160002091506000805b85518110156121ba57858181518110612182576121826147e6565b60200260200101516001600160a01b0316826001600160a01b031614156121a857600091505b806121b281614795565b915050612167565b506001600160a01b03811615612216576121d38561126e565b94508085600187516121e59190614868565b815181106121f5576121f56147e6565b60200260200101906001600160a01b031690816001600160a01b0316815250505b508061222181614795565b91505061211a565b509192915050565b6060600082516001612243919061477d565b6001600160401b0381111561225a5761225a614070565b604051908082528060200260200182016040528015612283578160200160208202803683370190505b50905060005b8351811015611325578381815181106122a4576122a46147e6565b60200260200101518282815181106122be576122be6147e6565b91151560209283029190910190910152806122d881614795565b915050612289565b600c81815481106113da57600080fd5b60608060005b6001600160a01b0384166000908152601d60205260409020548110156113255761231f8261126e565b6001600160a01b0385166000908152601d602052604090208054919350908290811061234d5761234d6147e6565b9060005260206000200160009054906101000a90046001600160a01b031682828151811061237d5761237d6147e6565b6001600160a01b03909216602092830291909101909101528061239f81614795565b9150506122f6565b6000606080606060006123ba8787612a84565b9a9950505050505050505050565b336000908152601b602052604090206001600160a01b03831661243b5760405162461bcd60e51b815260206004820152602560248201527f64656265732074656e657220726566657269646f207061726120726567697374604482015264726172746560d81b6064820152608401611961565b60265415612564576026546003546001600160a01b031663dd62ed3e336040516001600160e01b031960e084901b1681526001600160a01b039091166004820152306024820152604401602060405180830381865afa1580156124a2573d6000803e3d6000fd5b505050506040513d601f19601f820116820180604052508101906124c691906147b0565b10156124d157600080fd5b6003546001600160a01b03166323b872dd336026546040516001600160e01b031960e085901b1681526001600160a01b03909216600483015230602483015260448201526064016020604051808303816000875af1158015612537573d6000803e3d6000fd5b505050506040513d601f19601f8201168201806040525081019061255b91906147c9565b61256457600080fd5b60026027541061267e5760005b60245481101561267c57600354602480546001600160a01b039092169163a9059cbb9190849081106125a5576125a56147e6565b9060005260206000200160009054906101000a90046001600160a01b03166125fa60646115ba602587815481106125de576125de6147e6565b9060005260206000200154602654613b1090919063ffffffff16565b6040516001600160e01b031960e085901b1681526001600160a01b03909216600483015260248201526044016020604051808303816000875af1158015612645573d6000803e3d6000fd5b505050506040513d601f19601f8201168201806040525081019061266991906147c9565b508061267481614795565b915050612571565b505b805460ff166127ca57805460ff19166001178155601154600f546126a2919061475e565b6126ac904261477d565b6001820155336000908152601c6020908152604080832080546001600160a01b0319166001600160a01b0388169081179091558352601b909152812060088101805491926126f983614795565b90915550506001600160a01b0384166000908152601d60209081526040822080546001810182559083529082200180546001600160a01b03191633179055601580549161274583614795565b9190505550600b602060006127573390565b6001600160a01b031681526020810191909152604001600020815461277c9290613d77565b50602380546000908152601e6020908152604080832080546001600160a01b031916339081179091558454908452601f909252822081905591906127bf83614795565b9190505550506127ef565b601154600f546127da919061475e565b81600101546127e9919061477d565b60018201555b81516128049060098301906020850190613eb0565b50505050565b6001600160a01b0381166000908152601b60209081526040808320815161018081018352815460ff16151581526001820154938101939093526002810154918301919091526003810154606083015260048101546080830152600581015460a0830152600681015460c0830152600781015460e08301526008810154610100830152600981018054849392916101208401916128a590614833565b80601f01602080910402602001604051908101604052809291908181526020018280546128d190614833565b801561291e5780601f106128f35761010080835404028352916020019161291e565b820191906000526020600020905b81548152906001019060200180831161290157829003601f168201915b50505050508152602001600a8201805480602002602001604051908101604052809291908181526020016000905b828210156129a5576000848152602090819020604080516080810182526004860290920180548352600180820154848601526002820154928401929092526003015460ff1615156060830152908352909201910161294c565b505050508152602001600b82015481525050905060005b600c54811015612a6d57600d81815481106129d9576129d96147e6565b906000526020600020015482610160015110158015612a3557503360009081526020805260409020805482908110612a1357612a136147e6565b90600052602060002090602091828204019190069054906101000a900460ff16155b15612a5b57600c8181548110612a4d57612a4d6147e6565b906000526020600020015492505b80612a6581614795565b9150506129bc565b5050919050565b6028818154811061204057600080fd5b6001600160a01b0382166000908152601b6020526040812060609182918291908183808083808080805b600a8a0154811015612c775789600a018181548110612acf57612acf6147e6565b6000918252602090912060036004909202019081015490995060ff1615158f15151415612c6557612aff8861206a565b9750612b0a8761206a565b9650612b1586612231565b955088600001548760018951612b2b9190614868565b81518110612b3b57612b3b6147e6565b602002602001018181525050612b4f611746565b8954612b5b919061477d565b9350834211612b6a5742612b6c565b835b60038a015490925060ff1615612b9c57885460068b015411612b8f578854612b95565b89600601545b9250612bb8565b885460058b015411612baf578854612bb5565b89600501545b92505b8215801590612bc657508183105b15612c3457612bd3611746565b612bdd8484614868565b8a60020154612bec919061475e565b612bf6919061487f565b612c00908661477d565b945060018660018851612c139190614868565b81518110612c2357612c236147e6565b911515602092830291909101909101525b88600201548860018a51612c489190614868565b81518110612c5857612c586147e6565b6020026020010181815250505b80612c6f81614795565b915050612aae565b50959e949d50929b5090995091975050505050505050565b600080546001600160a01b0316336001600160a01b031614612cb057600080fd5b8251612cc3906028906020860190613f23565b508151612cd7906029906020850190613e75565b5060019392505050565b600080546001600160a01b0316336001600160a01b031614612d0257600080fd5b50602655600190565b3360009081526001602052604081205460ff16612d2757600080fd5b50600e805460ff191682151517905590565b600080546001600160a01b0316336001600160a01b031614612d5a57600080fd5b50601355600190565b600080546001600160a01b0316336001600160a01b031614612d8457600080fd5b50600781905590565b6000601b81336001600160a01b03908116825260208201929092526040908101600020600281015460035492516370a0823160e01b815230600482015291945092839216906370a0823190602401602060405180830381865afa158015612df8573d6000803e3d6000fd5b505050506040513d601f19601f82011682018060405250810190612e1c91906147b0565b1015612e815760405162461bcd60e51b815260206004820152602e60248201527f6e6f206861792073616c646f20656e20656c20636f6e747261746f207061726160448201526d20686163657220656c207061676f60901b6064820152608401611961565b600454811015612e9057600080fd5b6003546001600160a01b031663a9059cbb33612ebc60646115ba60135487613b1090919063ffffffff16565b6040516001600160e01b031960e085901b1681526001600160a01b03909216600483015260248201526044016020604051808303816000875af1158015612f07573d6000803e3d6000fd5b505050506040513d601f19601f82011682018060405250810190612f2b91906147c9565b50816002016000905580601a6000828254611664919061477d565b60008111612f665760405162461bcd60e51b8152600401611961906147fc565b336000908152601b60205260409020805460ff16612fbb5760405162461bcd60e51b81526020600482015260126024820152716e6f2065737461207265676973747261646f60701b6044820152606401611961565b806001015442106130045760405162461bcd60e51b815260206004820152601360248201527206e6f207469656e65206d656d6265727368697606c1b6044820152606401611961565b600082600554613014919061475e565b60035490915081906001600160a01b031663dd62ed3e336040516001600160e01b031960e084901b1681526001600160a01b039091166004820152306024820152604401602060405180830381865afa158015613075573d6000803e3d6000fd5b505050506040513d601f19601f8201168201806040525081019061309991906147b0565b10156130e75760405162461bcd60e51b815260206004820152601b60248201527f73616c646f206170726f7661646f20696e737566696369656e746500000000006044820152606401611961565b6003546001600160a01b03166323b872dd336040516001600160e01b031960e084901b1681526001600160a01b039091166004820152306024820152604481018490526064016020604051808303816000875af115801561314c573d6000803e3d6000fd5b505050506040513d601f19601f8201168201806040525081019061317091906147c9565b6131b35760405162461bcd60e51b81526020600482015260146024820152737472616e666572656e6369612066616c6c69646160601b6044820152606401611961565b336000908152601c60205260409020546001600160a01b0316156132b15761322c3382600880548060200260200160405190810160405280929190818152602001828054801561322257602002820191906000526020600020905b81548152602001906001019080831161320e575b5050505050613b6b565b336000908152601c60209081526040808320546001600160a01b03168352601b9091528120600b810180549192869261326690849061477d565b9091555050336000908152601c60209081526040808320546001600160a01b03168352601f82528083205483526021909152812080548692906132aa90849061477d565b9091555050505b81600a0160405180608001604052804281526020016132e060646115ba60125487613b1090919063ffffffff16565b81526020016132ff60646115ba60125487613b1090919063ffffffff16565b815260006020918201819052835460018082018655948252828220845160049283029091019081559284015194830194909455604083015160028301556060909201516003909101805460ff1916911515919091179055908301805485929061336990849061477d565b925050819055508060166000828254613382919061477d565b90915550600090505b60285481101561280457600354602880546001600160a01b039092169163a9059cbb9190849081106133bf576133bf6147e6565b9060005260206000200160009054906101000a90046001600160a01b031661341260646115ba602987815481106133f8576133f86147e6565b906000526020600020015488613b1090919063ffffffff16565b6040516001600160e01b031960e085901b1681526001600160a01b03909216600483015260248201526044016020604051808303816000875af115801561345d573d6000803e3d6000fd5b505050506040513d601f19601f8201168201806040525081019061348191906147c9565b508061348c81614795565b91505061338b565b600b81815481106134a457600080fd5b9060005260206000209060209182820401919006915054906101000a900460ff1681565b600080546001600160a01b0316336001600160a01b0316146134e957600080fd5b83516134fc906024906020870190613f23565b508251613510906025906020860190613e75565b5050602755506001919050565b600e5460ff1661352c57600080fd5b336000818152601b60205260408120916135479060016123a7565b6003546040516370a0823160e01b815230600482015291925082916001600160a01b03909116906370a0823190602401602060405180830381865afa158015613594573d6000803e3d6000fd5b505050506040513d601f19601f820116820180604052508101906135b891906147b0565b10156135c357600080fd5b6004548110156135d257600080fd5b6003546001600160a01b031663a9059cbb336135fe60646115ba60135487613b1090919063ffffffff16565b6040516001600160e01b031960e085901b1681526001600160a01b03909216600483015260248201526044016020604051808303816000875af1158015613649573d6000803e3d6000fd5b505050506040513d601f19601f8201168201806040525081019061366d91906147c9565b5080826007016000828254613682919061477d565b90915550504260068301556019805482919060009061166490849061477d565b60008060005b6023548110156137475760005b600c5481101561373457600d81815481106136d2576136d26147e6565b906000526020600020015460216000848152602001908152602001600020541061372257600c8181548110613709576137096147e6565b90600052602060002001548361371f919061477d565b92505b8061372c81614795565b9150506136b5565b508061373f81614795565b9150506136a8565b50919050565b600a81815481106113da57600080fd5b60008060005b60235481101561374757600081815260226020526040902054613786908361477d565b91508061379281614795565b915050613763565b6000546001600160a01b0316336001600160a01b0316146137ba57600080fd5b6001600160a01b0381166137cd57600080fd5b600080546040516001600160a01b03808516939216917f8be0079c531659141344cd1fd0a4f28419497f9722a3daafe3b4186f6b6457e091a3600080546001600160a01b0319166001600160a01b0392909216919091179055565b3360009081526001602052604081205460ff1661384457600080fd5b50601081905590565b600080546001600160a01b0316336001600160a01b03161461386e57600080fd5b6000821161388e5760405162461bcd60e51b8152600401611961906147fc565b6001600160a01b0383166000908152601b60205260409020805460ff166138b457600080fd5b6000836005546138c4919061475e565b6001600160a01b038681166000908152601c602052604090205491925016156139cd5761394085826008805480602002602001604051908101604052809291908181526020018280548015613222576020028201919060005260206000209081548152602001906001019080831161320e575050505050613b6b565b6001600160a01b038086166000908152601c60209081526040808320549093168252601b9052908120600b810180549192879261397e90849061477d565b90915550506001600160a01b038087166000908152601c60209081526040808320549093168252601f81528282205482526021905290812080548792906139c690849061477d565b9091555050505b81600a0160405180608001604052804281526020016139fc60646115ba60125487613b1090919063ffffffff16565b8152602001613a1b60646115ba60125487613b1090919063ffffffff16565b815260006020918201819052835460018082018655948252828220845160049283029091019081559284015194830194909455604083015160028301556060909201516003909101805460ff19169115159190911790559083018054869290613a8590849061477d565b925050819055508060166000828254613a9e919061477d565b9091555060019695505050505050565b600080546001600160a01b0316336001600160a01b031614613acf57600080fd5b600080546040516001600160a01b03909116914780156108fc02929091818181858888f19350505050158015613b09573d6000803e3d6000fd5b5047905090565b600082613b1f575060006110bb565b6000613b2b838561475e565b905082613b38858361487f565b14613b4257600080fd5b9392505050565b6000808211613b5757600080fd5b6000613b63838561487f565b949350505050565b6060613b788483516111d9565b905060008080805b8551811015613d6d57858181518110613b9b57613b9b6147e6565b6020026020010151600014613d5657601b6000868381518110613bc057613bc06147e6565b6020908102919091018101516001600160a01b03168252810191909152604001600020805490925060ff168015613bfb575042826001015410155b15613d5b5760006001600160a01b0316858281518110613c1d57613c1d6147e6565b60200260200101516001600160a01b031614613d5657613c656103e86115ba888481518110613c4e57613c4e6147e6565b60200260200101518a613b1090919063ffffffff16565b9350613c9c60646115ba60098481548110613c8257613c826147e6565b90600052602060002001548a613b1090919063ffffffff16565b925083826002016000828254613cb2919061477d565b9250508190555083826003016000828254613ccd919061477d565b9091555050604080516080810182524281526020808201868152928201868152600160608401818152600a88018054808401825560009182529481209551600490950290950193845594519083015551600282015591516003909201805460ff19169215159290921790915560178054869290613d4b90849061477d565b90915550613d5b9050565b613d6d565b80613d6581614795565b915050613b80565b5050505050505050565b82805482825590600052602060002090601f01602090048101928215613dc557600052602060002091601f016020900482015b82811115613dc5578254825591600101919060010190613daa565b50613dd1929150613f78565b5090565b82805482825590600052602060002090601f01602090048101928215613dc55791602002820160005b83821115613e3b57835183826101000a81548160ff0219169083151502179055509260200192600101602081600001049283019260010302613dfe565b8015613e685782816101000a81549060ff0219169055600101602081600001049283019260010302613e3b565b5050613dd1929150613f78565b828054828255906000526020600020908101928215613dc5579160200282015b82811115613dc5578251825591602001919060010190613e95565b828054613ebc90614833565b90600052602060002090601f016020900481019282613ede5760008555613dc5565b82601f10613ef757805160ff1916838001178555613dc5565b82800160010185558215613dc55791820182811115613dc5578251825591602001919060010190613e95565b828054828255906000526020600020908101928215613dc5579160200282015b82811115613dc557825182546001600160a01b0319166001600160a01b03909116178255602090920191600190910190613f43565b5b80821115613dd15760008155600101613f79565b6001600160a01b0381168114613fa257600080fd5b50565b60008060408385031215613fb857600080fd5b8235613fc381613f8d565b91506020830135613fd381613f8d565b809150509250929050565b600060208284031215613ff057600080fd5b5035919050565b6000806040838503121561400a57600080fd5b823561401581613f8d565b946020939093013593505050565b6020808252825182820181905260009190848201906040850190845b818110156140645783516001600160a01b03168352928401929184019160010161403f565b50909695505050505050565b634e487b7160e01b600052604160045260246000fd5b604051601f8201601f191681016001600160401b03811182821017156140ae576140ae614070565b604052919050565b60006001600160401b038211156140cf576140cf614070565b5060051b60200190565b600082601f8301126140ea57600080fd5b813560206140ff6140fa836140b6565b614086565b82815260059290921b8401810191818101908684111561411e57600080fd5b8286015b8481101561414257803561413581613f8d565b8352918301918301614122565b509695505050505050565b60006020828403121561415f57600080fd5b81356001600160401b0381111561417557600080fd5b613b63848285016140d9565b6000806040838503121561419457600080fd5b50508035926020909101359150565b600081518084526020808501945080840160005b838110156141d3578151875295820195908201906001016141b7565b509495945050505050565b602081526000613b4260208301846141a3565b8015158114613fa257600080fd5b600082601f83011261421057600080fd5b813560206142206140fa836140b6565b82815260059290921b8401810191818101908684111561423f57600080fd5b8286015b84811015614142578035614256816141f1565b8352918301918301614243565b600082601f83011261427457600080fd5b813560206142846140fa836140b6565b82815260059290921b840181019181810190868411156142a357600080fd5b8286015b8481101561414257803583529183019183016142a7565b6000806000606084860312156142d357600080fd5b83356001600160401b03808211156142ea57600080fd5b6142f6878388016141ff565b9450602086013591508082111561430c57600080fd5b61431887838801614263565b9350604086013591508082111561432e57600080fd5b5061433b86828701614263565b9150509250925092565b60006020828403121561435757600080fd5b8135613b4281613f8d565b60008060006060848603121561437757600080fd5b833561438281613f8d565b9250602084013591506040840135614399816141f1565b809150509250925092565b600082601f8301126143b557600080fd5b81356001600160401b038111156143ce576143ce614070565b6143e1601f8201601f1916602001614086565b8181528460208386010111156143f657600080fd5b816020850160208301376000918101602001919091529392505050565b60006020828403121561442557600080fd5b81356001600160401b0381111561443b57600080fd5b613b63848285016143a4565b60006101608d1515835260208d818501528c60408501528b60608501528a60808501528960a08501528860c08501528760e0850152866101008501528161012085015285518083860152600092505b808310156144b557868301820151858401610180015291810191614496565b808311156144c857600061018082870101525b610140850195909552505050601f91909101601f191601610180019a9950505050505050505050565b60006020828403121561450357600080fd5b81356001600160401b0381111561451957600080fd5b613b6384828501614263565b60006020828403121561453757600080fd5b81356001600160401b0381111561454d57600080fd5b613b63848285016141ff565b600081518084526020808501945080840160005b838110156141d357815115158752958201959082019060010161456d565b602081526000613b426020830184614559565b600080604083850312156145b157600080fd5b82356145bc81613f8d565b91506020830135613fd3816141f1565b600080604083850312156145df57600080fd5b82356145ea81613f8d565b915060208301356001600160401b0381111561460557600080fd5b614611858286016143a4565b9150509250929050565b60808152600061462e60808301876141a3565b828103602084015261464081876141a3565b905082810360408401526146548186614559565b91505082606083015295945050505050565b6000806040838503121561467957600080fd5b82356001600160401b038082111561469057600080fd5b61469c868387016140d9565b935060208501359150808211156146b257600080fd5b5061461185828601614263565b6000602082840312156146d157600080fd5b8135613b42816141f1565b6000806000606084860312156146f157600080fd5b83356001600160401b038082111561470857600080fd5b614714878388016140d9565b9450602086013591508082111561472a57600080fd5b5061473786828701614263565b925050604084013590509250925092565b634e487b7160e01b600052601160045260246000fd5b600081600019048311821515161561477857614778614748565b500290565b6000821982111561479057614790614748565b500190565b60006000198214156147a9576147a9614748565b5060010190565b6000602082840312156147c257600080fd5b5051919050565b6000602082840312156147db57600080fd5b8151613b42816141f1565b634e487b7160e01b600052603260045260246000fd5b6020808252601e908201527f63616e7469646164206d696e696d6120646520626c6f6b657320657320310000604082015260600190565b600181811c9082168061484757607f821691505b6020821081141561374757634e487b7160e01b600052602260045260246000fd5b60008282101561487a5761487a614748565b500390565b60008261489c57634e487b7160e01b600052601260045260246000fd5b50049056fea26469706673582212209b8f706df0a1004b0b3e6f923cbe2402e541c4719958dbd9449b6753fb61ae5564736f6c634300080a0033",
    "sourcePath": "c:/Users/STC/Documents/GitHub/0-INFINITY-BLOCKS-TEST-UNILEVEL/contracts/UnilevelSystem.sol",
    "compiler": {
        "name": "solc",
        "version": "0.8.10+commit.fc410830"
    },
    "functionHashes": {
        "ChangeTokenPrincipal(address)": "50da983f",
        "MIN_RETIRO()": "6c529279",
        "PRECIO_BLOCK()": "24de19f2",
        "activerFee()": "bd9bee19",
        "actualizarArrayBool(bool[])": "7fcc1e36",
        "actualizarArrayUint256(uint256[])": "7367b080",
        "actualizarNetwork(address[])": "1ce7f99b",
        "addressToId(address)": "cb0e0d7d",
        "admin(address)": "63a846f8",
        "allnetwork(address[])": "7faee047",
        "asignarBloke(address,uint256,bool)": "67f74aab",
        "asignarBlokePago(address,uint256)": "fc5d8615",
        "asignarMembership(address,address)": "1053abb1",
        "baserange(uint256)": "cfda9ee6",
        "baserangelength()": "f5c9dbef",
        "blockesRango(uint256)": "b5df6d44",
        "buyBlocks(uint256)": "c17dbdf9",
        "column(address,uint256)": "15e8392b",
        "columnHijos(address)": "815374ca",
        "controlWitdrawl(bool)": "b17b6e44",
        "depositos(address,bool)": "a365528b",
        "descuento()": "7b0412ed",
        "dias()": "ab6db199",
        "duracionMembership()": "c40d5dbc",
        "gananciasRango(uint256)": "81032892",
        "hijo(address,uint256)": "339640b5",
        "idToAddress(uint256)": "2a2d0c47",
        "infinity(uint256)": "edf5eb1d",
        "inversiones()": "a77d2119",
        "investors(address)": "6f7bc9be",
        "lastUserId()": "348d4487",
        "makeNewAdmin(address)": "69ed1e0a",
        "makeRemoveAdmin(address)": "70a0966b",
        "newRecompensa()": "69f4a84b",
        "onOffWitdrawl()": "e7348e8c",
        "owner()": "8da5cb5b",
        "padre(address)": "b35f0a8f",
        "personas()": "cc759ba2",
        "porcent()": "4728f718",
        "porcientos(uint256)": "28cca719",
        "precioRegistro()": "7db9e9c6",
        "primervez(uint256)": "725fc270",
        "puntosRango(uint256)": "21309f21",
        "rangoReclamado(address,uint256)": "2acc8210",
        "redimBNB()": "fd14d598",
        "redimTokenPrincipal02(uint256)": "1140e85b",
        "registro(address,string)": "8f9ef8c1",
        "setDescuento(uint256)": "b3d9fa09",
        "setInversiones(uint256)": "b85ea335",
        "setMIN_RETIRO(uint256)": "4de1be62",
        "setPorcientos(uint256,uint256)": "1e403c35",
        "setPorcientosSalida(uint256,uint256)": "5d216c60",
        "setPrecioRegistro(uint256)": "aaa749c5",
        "setPriceBlock(uint256)": "2e8a03cf",
        "setPrimeravezPorcientos(uint256,uint256)": "54822522",
        "setRangos(bool[],uint256[],uint256[])": "43bf0bd4",
        "setRetorno(uint256)": "6589fa8a",
        "setTiempo(uint256)": "f90b3f5a",
        "setTiempoUnidades(uint256)": "2748d29b",
        "setWalletFee(address[],uint256[],uint256)": "db3be1a2",
        "setWalletstransfers(address[],uint256[])": "a8beb717",
        "setduracionMembership(uint256)": "4acb7240",
        "tiempo()": "50188c08",
        "tokenPricipal()": "b1390426",
        "totalInvested()": "5216aeec",
        "totalInvestors()": "29b8caff",
        "totalRange()": "ecdb171f",
        "totalRangeWitdrawl()": "eef117fd",
        "totalRefRewards()": "bfe0e020",
        "totalRefWitdrawl()": "9b8ff503",
        "totalRoiWitdrawl()": "70d7e3d5",
        "totalTeamWitdrawl()": "ff0b0cc5",
        "transferOwnership(address)": "f2fde38b",
        "unidades()": "4b9b8203",
        "updateData(string)": "68446ead",
        "usdtRetirado(uint256)": "1f5d65fd",
        "valor(uint256)": "62550916",
        "valorFee(uint256)": "29e1a243",
        "wallet(uint256)": "a2781335",
        "walletFee(uint256)": "7251b9ac",
        "withdraw()": "3ccfd60b",
        "withdraw2()": "ea98847b",
        "withdrawTeam()": "bb51f32d",
        "withdrawable(address,bool)": "89b2521c",
        "withdrawableRange(address)": "98c07d0a"
    },
    "gasEstimates": {
        "creation": {
            "codeDepositCost": "3729400",
            "executionCost": "infinite",
            "totalCost": "infinite"
        },
        "external": {
            "": "253",
            "ChangeTokenPrincipal(address)": "51150",
            "MIN_RETIRO()": "2451",
            "PRECIO_BLOCK()": "2408",
            "activerFee()": "2429",
            "actualizarArrayBool(bool[])": "infinite",
            "actualizarArrayUint256(uint256[])": "infinite",
            "actualizarNetwork(address[])": "infinite",
            "addressToId(address)": "2624",
            "admin(address)": "2648",
            "allnetwork(address[])": "infinite",
            "asignarBloke(address,uint256,bool)": "infinite",
            "asignarBlokePago(address,uint256)": "infinite",
            "asignarMembership(address,address)": "infinite",
            "baserange(uint256)": "6380",
            "baserangelength()": "2380",
            "blockesRango(uint256)": "2506",
            "buyBlocks(uint256)": "infinite",
            "column(address,uint256)": "infinite",
            "columnHijos(address)": "infinite",
            "controlWitdrawl(bool)": "26895",
            "depositos(address,bool)": "infinite",
            "descuento()": "2364",
            "dias()": "2384",
            "duracionMembership()": "2384",
            "gananciasRango(uint256)": "4732",
            "hijo(address,uint256)": "4846",
            "idToAddress(uint256)": "2590",
            "infinity(uint256)": "4708",
            "inversiones()": "2429",
            "investors(address)": "infinite",
            "lastUserId()": "2385",
            "makeNewAdmin(address)": "28121",
            "makeRemoveAdmin(address)": "28047",
            "newRecompensa()": "infinite",
            "onOffWitdrawl()": "2366",
            "owner()": "2449",
            "padre(address)": "2707",
            "personas()": "2428",
            "porcent()": "2451",
            "porcientos(uint256)": "4732",
            "precioRegistro()": "2386",
            "primervez(uint256)": "4730",
            "puntosRango(uint256)": "4666",
            "rangoReclamado(address,uint256)": "6527",
            "redimBNB()": "infinite",
            "redimTokenPrincipal02(uint256)": "infinite",
            "registro(address,string)": "infinite",
            "setDescuento(uint256)": "24722",
            "setInversiones(uint256)": "24643",
            "setMIN_RETIRO(uint256)": "24644",
            "setPorcientos(uint256,uint256)": "infinite",
            "setPorcientosSalida(uint256,uint256)": "infinite",
            "setPrecioRegistro(uint256)": "24612",
            "setPriceBlock(uint256)": "24702",
            "setPrimeravezPorcientos(uint256,uint256)": "infinite",
            "setRangos(bool[],uint256[],uint256[])": "infinite",
            "setRetorno(uint256)": "24739",
            "setTiempo(uint256)": "24693",
            "setTiempoUnidades(uint256)": "24688",
            "setWalletFee(address[],uint256[],uint256)": "infinite",
            "setWalletstransfers(address[],uint256[])": "infinite",
            "setduracionMembership(uint256)": "24723",
            "tiempo()": "infinite",
            "tokenPricipal()": "2448",
            "totalInvested()": "2452",
            "totalInvestors()": "2364",
            "totalRange()": "infinite",
            "totalRangeWitdrawl()": "infinite",
            "totalRefRewards()": "2451",
            "totalRefWitdrawl()": "2363",
            "totalRoiWitdrawl()": "2406",
            "totalTeamWitdrawl()": "2471",
            "transferOwnership(address)": "30478",
            "unidades()": "2364",
            "updateData(string)": "infinite",
            "usdtRetirado(uint256)": "2507",
            "valor(uint256)": "4687",
            "valorFee(uint256)": "4666",
            "wallet(uint256)": "4704",
            "walletFee(uint256)": "4747",
            "withdraw()": "infinite",
            "withdraw2()": "infinite",
            "withdrawTeam()": "infinite",
            "withdrawable(address,bool)": "infinite",
            "withdrawableRange(address)": "infinite"
        },
        "internal": {
            "rewardReferers(address,uint256,uint256[] memory)": "infinite"
        }
    }
}