{
    "contractName": "InfinitySystemV2",
    "abi": [
        {
            "inputs": [],
            "stateMutability": "nonpayable",
            "type": "constructor"
        },
        {
            "stateMutability": "payable",
            "type": "fallback"
        },
        {
            "inputs": [
                {
                    "internalType": "address",
                    "name": "_tokenTRC20",
                    "type": "address"
                }
            ],
            "name": "ChangeTokenPrincipal",
            "outputs": [
                {
                    "internalType": "bool",
                    "name": "",
                    "type": "bool"
                }
            ],
            "stateMutability": "nonpayable",
            "type": "function"
        },
        {
            "inputs": [],
            "name": "MIN_RETIRO",
            "outputs": [
                {
                    "internalType": "uint256",
                    "name": "",
                    "type": "uint256"
                }
            ],
            "stateMutability": "view",
            "type": "function"
        },
        {
            "inputs": [],
            "name": "PRECIO_BLOCK",
            "outputs": [
                {
                    "internalType": "uint256",
                    "name": "",
                    "type": "uint256"
                }
            ],
            "stateMutability": "view",
            "type": "function"
        },
        {
            "inputs": [],
            "name": "PRECIO_BLOCK_infinity",
            "outputs": [
                {
                    "internalType": "uint256",
                    "name": "",
                    "type": "uint256"
                }
            ],
            "stateMutability": "view",
            "type": "function"
        },
        {
            "inputs": [
                {
                    "internalType": "bool[]",
                    "name": "old",
                    "type": "bool[]"
                }
            ],
            "name": "actualizarArrayBool",
            "outputs": [
                {
                    "internalType": "bool[]",
                    "name": "",
                    "type": "bool[]"
                }
            ],
            "stateMutability": "pure",
            "type": "function"
        },
        {
            "inputs": [
                {
                    "internalType": "uint256[]",
                    "name": "old",
                    "type": "uint256[]"
                }
            ],
            "name": "actualizarArrayUint256",
            "outputs": [
                {
                    "internalType": "uint256[]",
                    "name": "",
                    "type": "uint256[]"
                }
            ],
            "stateMutability": "pure",
            "type": "function"
        },
        {
            "inputs": [
                {
                    "internalType": "address[]",
                    "name": "oldNetwork",
                    "type": "address[]"
                }
            ],
            "name": "actualizarNetwork",
            "outputs": [
                {
                    "internalType": "address[]",
                    "name": "",
                    "type": "address[]"
                }
            ],
            "stateMutability": "pure",
            "type": "function"
        },
        {
            "inputs": [
                {
                    "internalType": "address",
                    "name": "",
                    "type": "address"
                }
            ],
            "name": "adInfinity",
            "outputs": [
                {
                    "internalType": "uint256",
                    "name": "",
                    "type": "uint256"
                }
            ],
            "stateMutability": "view",
            "type": "function"
        },
        {
            "inputs": [
                {
                    "internalType": "address",
                    "name": "",
                    "type": "address"
                }
            ],
            "name": "adRoi",
            "outputs": [
                {
                    "internalType": "uint256",
                    "name": "",
                    "type": "uint256"
                }
            ],
            "stateMutability": "view",
            "type": "function"
        },
        {
            "inputs": [
                {
                    "internalType": "address",
                    "name": "_user",
                    "type": "address"
                },
                {
                    "internalType": "bool",
                    "name": "_sumar",
                    "type": "bool"
                },
                {
                    "internalType": "uint256",
                    "name": "_value",
                    "type": "uint256"
                }
            ],
            "name": "addInfinity",
            "outputs": [],
            "stateMutability": "nonpayable",
            "type": "function"
        },
        {
            "inputs": [
                {
                    "internalType": "address",
                    "name": "_user",
                    "type": "address"
                },
                {
                    "internalType": "bool",
                    "name": "_sumar",
                    "type": "bool"
                },
                {
                    "internalType": "uint256",
                    "name": "_value",
                    "type": "uint256"
                }
            ],
            "name": "addReferal",
            "outputs": [],
            "stateMutability": "nonpayable",
            "type": "function"
        },
        {
            "inputs": [
                {
                    "internalType": "address",
                    "name": "_user",
                    "type": "address"
                },
                {
                    "internalType": "bool",
                    "name": "_sumar",
                    "type": "bool"
                },
                {
                    "internalType": "uint256",
                    "name": "_value",
                    "type": "uint256"
                }
            ],
            "name": "addRoi",
            "outputs": [],
            "stateMutability": "nonpayable",
            "type": "function"
        },
        {
            "inputs": [
                {
                    "internalType": "address",
                    "name": "",
                    "type": "address"
                }
            ],
            "name": "addressToId",
            "outputs": [
                {
                    "internalType": "uint256",
                    "name": "",
                    "type": "uint256"
                }
            ],
            "stateMutability": "view",
            "type": "function"
        },
        {
            "inputs": [
                {
                    "internalType": "address",
                    "name": "",
                    "type": "address"
                }
            ],
            "name": "admin",
            "outputs": [
                {
                    "internalType": "bool",
                    "name": "",
                    "type": "bool"
                }
            ],
            "stateMutability": "view",
            "type": "function"
        },
        {
            "inputs": [
                {
                    "internalType": "address",
                    "name": "",
                    "type": "address"
                }
            ],
            "name": "admin2",
            "outputs": [
                {
                    "internalType": "bool",
                    "name": "",
                    "type": "bool"
                }
            ],
            "stateMutability": "view",
            "type": "function"
        },
        {
            "inputs": [
                {
                    "internalType": "address[]",
                    "name": "network",
                    "type": "address[]"
                }
            ],
            "name": "allnetwork",
            "outputs": [
                {
                    "internalType": "address[]",
                    "name": "",
                    "type": "address[]"
                }
            ],
            "stateMutability": "view",
            "type": "function"
        },
        {
            "inputs": [
                {
                    "internalType": "address",
                    "name": "_user",
                    "type": "address"
                },
                {
                    "internalType": "uint256",
                    "name": "_value",
                    "type": "uint256"
                }
            ],
            "name": "asignarBlokePago",
            "outputs": [
                {
                    "internalType": "bool",
                    "name": "",
                    "type": "bool"
                }
            ],
            "stateMutability": "nonpayable",
            "type": "function"
        },
        {
            "inputs": [
                {
                    "internalType": "address",
                    "name": "_user",
                    "type": "address"
                },
                {
                    "internalType": "uint256",
                    "name": "_value",
                    "type": "uint256"
                },
                {
                    "internalType": "bool",
                    "name": "_infinit",
                    "type": "bool"
                }
            ],
            "name": "asignarBlokePago2",
            "outputs": [
                {
                    "internalType": "bool",
                    "name": "",
                    "type": "bool"
                }
            ],
            "stateMutability": "nonpayable",
            "type": "function"
        },
        {
            "inputs": [
                {
                    "internalType": "address",
                    "name": "_user",
                    "type": "address"
                },
                {
                    "internalType": "address",
                    "name": "_sponsor",
                    "type": "address"
                }
            ],
            "name": "asignarMembership",
            "outputs": [
                {
                    "internalType": "bool",
                    "name": "",
                    "type": "bool"
                }
            ],
            "stateMutability": "nonpayable",
            "type": "function"
        },
        {
            "inputs": [
                {
                    "internalType": "uint256",
                    "name": "",
                    "type": "uint256"
                }
            ],
            "name": "baserange",
            "outputs": [
                {
                    "internalType": "bool",
                    "name": "",
                    "type": "bool"
                }
            ],
            "stateMutability": "view",
            "type": "function"
        },
        {
            "inputs": [],
            "name": "baserangelength",
            "outputs": [
                {
                    "internalType": "uint256",
                    "name": "",
                    "type": "uint256"
                }
            ],
            "stateMutability": "view",
            "type": "function"
        },
        {
            "inputs": [
                {
                    "internalType": "uint256",
                    "name": "",
                    "type": "uint256"
                }
            ],
            "name": "blockesRango",
            "outputs": [
                {
                    "internalType": "uint256",
                    "name": "",
                    "type": "uint256"
                }
            ],
            "stateMutability": "view",
            "type": "function"
        },
        {
            "inputs": [
                {
                    "internalType": "address",
                    "name": "",
                    "type": "address"
                },
                {
                    "internalType": "uint256",
                    "name": "",
                    "type": "uint256"
                }
            ],
            "name": "blokes",
            "outputs": [
                {
                    "internalType": "uint256",
                    "name": "inicio",
                    "type": "uint256"
                },
                {
                    "internalType": "uint256",
                    "name": "value",
                    "type": "uint256"
                },
                {
                    "internalType": "uint256",
                    "name": "amount",
                    "type": "uint256"
                }
            ],
            "stateMutability": "view",
            "type": "function"
        },
        {
            "inputs": [
                {
                    "internalType": "uint256",
                    "name": "_value",
                    "type": "uint256"
                }
            ],
            "name": "buyBlocks",
            "outputs": [],
            "stateMutability": "nonpayable",
            "type": "function"
        },
        {
            "inputs": [
                {
                    "internalType": "uint256",
                    "name": "_value",
                    "type": "uint256"
                }
            ],
            "name": "buyInfinityBlock",
            "outputs": [],
            "stateMutability": "nonpayable",
            "type": "function"
        },
        {
            "inputs": [
                {
                    "internalType": "address",
                    "name": "yo",
                    "type": "address"
                },
                {
                    "internalType": "uint256",
                    "name": "_largo",
                    "type": "uint256"
                }
            ],
            "name": "column",
            "outputs": [
                {
                    "internalType": "address[]",
                    "name": "",
                    "type": "address[]"
                }
            ],
            "stateMutability": "view",
            "type": "function"
        },
        {
            "inputs": [
                {
                    "internalType": "address",
                    "name": "yo",
                    "type": "address"
                }
            ],
            "name": "columnHijos",
            "outputs": [
                {
                    "internalType": "address[]",
                    "name": "",
                    "type": "address[]"
                }
            ],
            "stateMutability": "view",
            "type": "function"
        },
        {
            "inputs": [
                {
                    "internalType": "bool",
                    "name": "_true_false",
                    "type": "bool"
                }
            ],
            "name": "controlWitdrawl",
            "outputs": [
                {
                    "internalType": "bool",
                    "name": "",
                    "type": "bool"
                }
            ],
            "stateMutability": "nonpayable",
            "type": "function"
        },
        {
            "inputs": [
                {
                    "internalType": "address",
                    "name": "_user",
                    "type": "address"
                },
                {
                    "internalType": "bool",
                    "name": "_infinity",
                    "type": "bool"
                }
            ],
            "name": "depositos",
            "outputs": [
                {
                    "internalType": "uint256[]",
                    "name": "",
                    "type": "uint256[]"
                },
                {
                    "internalType": "uint256[]",
                    "name": "",
                    "type": "uint256[]"
                },
                {
                    "internalType": "bool[]",
                    "name": "",
                    "type": "bool[]"
                },
                {
                    "internalType": "uint256",
                    "name": "",
                    "type": "uint256"
                }
            ],
            "stateMutability": "view",
            "type": "function"
        },
        {
            "inputs": [],
            "name": "descuento",
            "outputs": [
                {
                    "internalType": "uint256",
                    "name": "",
                    "type": "uint256"
                }
            ],
            "stateMutability": "view",
            "type": "function"
        },
        {
            "inputs": [],
            "name": "dias",
            "outputs": [
                {
                    "internalType": "uint256",
                    "name": "",
                    "type": "uint256"
                }
            ],
            "stateMutability": "view",
            "type": "function"
        },
        {
            "inputs": [],
            "name": "duracionMembership",
            "outputs": [
                {
                    "internalType": "uint256",
                    "name": "",
                    "type": "uint256"
                }
            ],
            "stateMutability": "view",
            "type": "function"
        },
        {
            "inputs": [
                {
                    "internalType": "uint256",
                    "name": "",
                    "type": "uint256"
                }
            ],
            "name": "gananciasRango",
            "outputs": [
                {
                    "internalType": "uint256",
                    "name": "",
                    "type": "uint256"
                }
            ],
            "stateMutability": "view",
            "type": "function"
        },
        {
            "inputs": [
                {
                    "internalType": "address",
                    "name": "",
                    "type": "address"
                },
                {
                    "internalType": "uint256",
                    "name": "",
                    "type": "uint256"
                }
            ],
            "name": "hijo",
            "outputs": [
                {
                    "internalType": "address",
                    "name": "",
                    "type": "address"
                }
            ],
            "stateMutability": "view",
            "type": "function"
        },
        {
            "inputs": [
                {
                    "internalType": "uint256",
                    "name": "",
                    "type": "uint256"
                }
            ],
            "name": "idToAddress",
            "outputs": [
                {
                    "internalType": "address",
                    "name": "",
                    "type": "address"
                }
            ],
            "stateMutability": "view",
            "type": "function"
        },
        {
            "inputs": [],
            "name": "implementation",
            "outputs": [
                {
                    "internalType": "address",
                    "name": "",
                    "type": "address"
                }
            ],
            "stateMutability": "view",
            "type": "function"
        },
        {
            "inputs": [
                {
                    "internalType": "address",
                    "name": "_user",
                    "type": "address"
                },
                {
                    "internalType": "address",
                    "name": "_sponsor",
                    "type": "address"
                }
            ],
            "name": "inMigracion",
            "outputs": [],
            "stateMutability": "nonpayable",
            "type": "function"
        },
        {
            "inputs": [
                {
                    "internalType": "uint256",
                    "name": "",
                    "type": "uint256"
                }
            ],
            "name": "infinity",
            "outputs": [
                {
                    "internalType": "uint256",
                    "name": "",
                    "type": "uint256"
                }
            ],
            "stateMutability": "view",
            "type": "function"
        },
        {
            "inputs": [
                {
                    "internalType": "address",
                    "name": "",
                    "type": "address"
                },
                {
                    "internalType": "uint256",
                    "name": "",
                    "type": "uint256"
                }
            ],
            "name": "infinityBlokes",
            "outputs": [
                {
                    "internalType": "uint256",
                    "name": "inicio",
                    "type": "uint256"
                },
                {
                    "internalType": "uint256",
                    "name": "value",
                    "type": "uint256"
                },
                {
                    "internalType": "uint256",
                    "name": "amount",
                    "type": "uint256"
                }
            ],
            "stateMutability": "view",
            "type": "function"
        },
        {
            "inputs": [
                {
                    "internalType": "address",
                    "name": "",
                    "type": "address"
                }
            ],
            "name": "investors",
            "outputs": [
                {
                    "internalType": "bool",
                    "name": "registered",
                    "type": "bool"
                },
                {
                    "internalType": "uint256",
                    "name": "membership",
                    "type": "uint256"
                },
                {
                    "internalType": "uint256",
                    "name": "balanceRef",
                    "type": "uint256"
                },
                {
                    "internalType": "uint256",
                    "name": "balanceInfinit",
                    "type": "uint256"
                },
                {
                    "internalType": "uint256",
                    "name": "totalRef",
                    "type": "uint256"
                },
                {
                    "internalType": "uint256",
                    "name": "invested",
                    "type": "uint256"
                },
                {
                    "internalType": "uint256",
                    "name": "paidAt",
                    "type": "uint256"
                },
                {
                    "internalType": "uint256",
                    "name": "paidAt2",
                    "type": "uint256"
                },
                {
                    "internalType": "uint256",
                    "name": "withdrawn",
                    "type": "uint256"
                },
                {
                    "internalType": "uint256",
                    "name": "directos",
                    "type": "uint256"
                },
                {
                    "internalType": "string",
                    "name": "data",
                    "type": "string"
                },
                {
                    "internalType": "uint256",
                    "name": "blokesDirectos",
                    "type": "uint256"
                }
            ],
            "stateMutability": "view",
            "type": "function"
        },
        {
            "inputs": [],
            "name": "lastUserId",
            "outputs": [
                {
                    "internalType": "uint256",
                    "name": "",
                    "type": "uint256"
                }
            ],
            "stateMutability": "view",
            "type": "function"
        },
        {
            "inputs": [
                {
                    "internalType": "address payable",
                    "name": "_newadmin",
                    "type": "address"
                }
            ],
            "name": "makeNewAdmin",
            "outputs": [],
            "stateMutability": "nonpayable",
            "type": "function"
        },
        {
            "inputs": [
                {
                    "internalType": "address payable",
                    "name": "_newadmin",
                    "type": "address"
                }
            ],
            "name": "makeNewAdmin2",
            "outputs": [],
            "stateMutability": "nonpayable",
            "type": "function"
        },
        {
            "inputs": [
                {
                    "internalType": "address payable",
                    "name": "_oldadmin",
                    "type": "address"
                }
            ],
            "name": "makeRemoveAdmin",
            "outputs": [],
            "stateMutability": "nonpayable",
            "type": "function"
        },
        {
            "inputs": [
                {
                    "internalType": "address payable",
                    "name": "_oldadmin",
                    "type": "address"
                }
            ],
            "name": "makeRemoveAdmin2",
            "outputs": [],
            "stateMutability": "nonpayable",
            "type": "function"
        },
        {
            "inputs": [],
            "name": "newRecompensa",
            "outputs": [],
            "stateMutability": "nonpayable",
            "type": "function"
        },
        {
            "inputs": [
                {
                    "internalType": "address",
                    "name": "",
                    "type": "address"
                },
                {
                    "internalType": "uint256",
                    "name": "",
                    "type": "uint256"
                }
            ],
            "name": "oldBlokes",
            "outputs": [
                {
                    "internalType": "uint256",
                    "name": "inicio",
                    "type": "uint256"
                },
                {
                    "internalType": "uint256",
                    "name": "value",
                    "type": "uint256"
                },
                {
                    "internalType": "uint256",
                    "name": "amount",
                    "type": "uint256"
                }
            ],
            "stateMutability": "view",
            "type": "function"
        },
        {
            "inputs": [],
            "name": "onOffWitdrawl",
            "outputs": [
                {
                    "internalType": "bool",
                    "name": "",
                    "type": "bool"
                }
            ],
            "stateMutability": "view",
            "type": "function"
        },
        {
            "inputs": [],
            "name": "owner",
            "outputs": [
                {
                    "internalType": "address payable",
                    "name": "",
                    "type": "address"
                }
            ],
            "stateMutability": "view",
            "type": "function"
        },
        {
            "inputs": [
                {
                    "internalType": "address",
                    "name": "",
                    "type": "address"
                }
            ],
            "name": "padre",
            "outputs": [
                {
                    "internalType": "address",
                    "name": "",
                    "type": "address"
                }
            ],
            "stateMutability": "view",
            "type": "function"
        },
        {
            "inputs": [],
            "name": "personas",
            "outputs": [
                {
                    "internalType": "uint256",
                    "name": "",
                    "type": "uint256"
                }
            ],
            "stateMutability": "view",
            "type": "function"
        },
        {
            "inputs": [],
            "name": "porcent",
            "outputs": [
                {
                    "internalType": "uint256",
                    "name": "",
                    "type": "uint256"
                }
            ],
            "stateMutability": "view",
            "type": "function"
        },
        {
            "inputs": [
                {
                    "internalType": "uint256",
                    "name": "",
                    "type": "uint256"
                }
            ],
            "name": "porcientos",
            "outputs": [
                {
                    "internalType": "uint256",
                    "name": "",
                    "type": "uint256"
                }
            ],
            "stateMutability": "view",
            "type": "function"
        },
        {
            "inputs": [],
            "name": "precioRegistro",
            "outputs": [
                {
                    "internalType": "uint256",
                    "name": "",
                    "type": "uint256"
                }
            ],
            "stateMutability": "view",
            "type": "function"
        },
        {
            "inputs": [
                {
                    "internalType": "uint256",
                    "name": "",
                    "type": "uint256"
                }
            ],
            "name": "primervez",
            "outputs": [
                {
                    "internalType": "uint256",
                    "name": "",
                    "type": "uint256"
                }
            ],
            "stateMutability": "view",
            "type": "function"
        },
        {
            "inputs": [
                {
                    "internalType": "uint256",
                    "name": "",
                    "type": "uint256"
                }
            ],
            "name": "puntosRango",
            "outputs": [
                {
                    "internalType": "uint256",
                    "name": "",
                    "type": "uint256"
                }
            ],
            "stateMutability": "view",
            "type": "function"
        },
        {
            "inputs": [
                {
                    "internalType": "address",
                    "name": "",
                    "type": "address"
                },
                {
                    "internalType": "uint256",
                    "name": "",
                    "type": "uint256"
                }
            ],
            "name": "rangoReclamado",
            "outputs": [
                {
                    "internalType": "bool",
                    "name": "",
                    "type": "bool"
                }
            ],
            "stateMutability": "view",
            "type": "function"
        },
        {
            "inputs": [],
            "name": "redimBNB",
            "outputs": [
                {
                    "internalType": "uint256",
                    "name": "",
                    "type": "uint256"
                }
            ],
            "stateMutability": "nonpayable",
            "type": "function"
        },
        {
            "inputs": [
                {
                    "internalType": "uint256",
                    "name": "_value",
                    "type": "uint256"
                }
            ],
            "name": "redimTokenPrincipal02",
            "outputs": [
                {
                    "internalType": "uint256",
                    "name": "",
                    "type": "uint256"
                }
            ],
            "stateMutability": "nonpayable",
            "type": "function"
        },
        {
            "inputs": [
                {
                    "internalType": "address",
                    "name": "_sponsor",
                    "type": "address"
                },
                {
                    "internalType": "string",
                    "name": "_datos",
                    "type": "string"
                }
            ],
            "name": "registro",
            "outputs": [],
            "stateMutability": "nonpayable",
            "type": "function"
        },
        {
            "inputs": [
                {
                    "internalType": "address",
                    "name": "_contarct",
                    "type": "address"
                }
            ],
            "name": "setContratoMigracion",
            "outputs": [
                {
                    "internalType": "bool",
                    "name": "",
                    "type": "bool"
                }
            ],
            "stateMutability": "nonpayable",
            "type": "function"
        },
        {
            "inputs": [
                {
                    "internalType": "uint256",
                    "name": "_descuento",
                    "type": "uint256"
                }
            ],
            "name": "setDescuento",
            "outputs": [
                {
                    "internalType": "bool",
                    "name": "",
                    "type": "bool"
                }
            ],
            "stateMutability": "nonpayable",
            "type": "function"
        },
        {
            "inputs": [
                {
                    "internalType": "uint256",
                    "name": "_min",
                    "type": "uint256"
                }
            ],
            "name": "setMIN_RETIRO",
            "outputs": [
                {
                    "internalType": "uint256",
                    "name": "",
                    "type": "uint256"
                }
            ],
            "stateMutability": "nonpayable",
            "type": "function"
        },
        {
            "inputs": [
                {
                    "internalType": "uint256",
                    "name": "_nivel",
                    "type": "uint256"
                },
                {
                    "internalType": "uint256",
                    "name": "_value",
                    "type": "uint256"
                }
            ],
            "name": "setPorcientos",
            "outputs": [
                {
                    "internalType": "uint256[]",
                    "name": "",
                    "type": "uint256[]"
                }
            ],
            "stateMutability": "nonpayable",
            "type": "function"
        },
        {
            "inputs": [
                {
                    "internalType": "uint256",
                    "name": "_nivel",
                    "type": "uint256"
                },
                {
                    "internalType": "uint256",
                    "name": "_value",
                    "type": "uint256"
                }
            ],
            "name": "setPorcientosSalida",
            "outputs": [
                {
                    "internalType": "uint256[]",
                    "name": "",
                    "type": "uint256[]"
                }
            ],
            "stateMutability": "nonpayable",
            "type": "function"
        },
        {
            "inputs": [
                {
                    "internalType": "uint256",
                    "name": "_precio",
                    "type": "uint256"
                }
            ],
            "name": "setPrecioRegistro",
            "outputs": [
                {
                    "internalType": "bool",
                    "name": "",
                    "type": "bool"
                }
            ],
            "stateMutability": "nonpayable",
            "type": "function"
        },
        {
            "inputs": [
                {
                    "internalType": "uint256",
                    "name": "_value",
                    "type": "uint256"
                },
                {
                    "internalType": "bool",
                    "name": "_infinity",
                    "type": "bool"
                }
            ],
            "name": "setPriceBlock",
            "outputs": [
                {
                    "internalType": "bool",
                    "name": "",
                    "type": "bool"
                }
            ],
            "stateMutability": "nonpayable",
            "type": "function"
        },
        {
            "inputs": [
                {
                    "internalType": "uint256",
                    "name": "_nivel",
                    "type": "uint256"
                },
                {
                    "internalType": "uint256",
                    "name": "_value",
                    "type": "uint256"
                }
            ],
            "name": "setPrimeravezPorcientos",
            "outputs": [
                {
                    "internalType": "uint256[]",
                    "name": "",
                    "type": "uint256[]"
                }
            ],
            "stateMutability": "nonpayable",
            "type": "function"
        },
        {
            "inputs": [
                {
                    "internalType": "bool[]",
                    "name": "_baserange",
                    "type": "bool[]"
                },
                {
                    "internalType": "uint256[]",
                    "name": "_gananciasRango",
                    "type": "uint256[]"
                },
                {
                    "internalType": "uint256[]",
                    "name": "_puntosRango",
                    "type": "uint256[]"
                }
            ],
            "name": "setRangos",
            "outputs": [
                {
                    "internalType": "bool",
                    "name": "",
                    "type": "bool"
                }
            ],
            "stateMutability": "nonpayable",
            "type": "function"
        },
        {
            "inputs": [
                {
                    "internalType": "uint256",
                    "name": "_porcentaje",
                    "type": "uint256"
                }
            ],
            "name": "setRetorno",
            "outputs": [
                {
                    "internalType": "uint256",
                    "name": "",
                    "type": "uint256"
                }
            ],
            "stateMutability": "nonpayable",
            "type": "function"
        },
        {
            "inputs": [
                {
                    "internalType": "uint256",
                    "name": "_dias",
                    "type": "uint256"
                }
            ],
            "name": "setTiempo",
            "outputs": [
                {
                    "internalType": "uint256",
                    "name": "",
                    "type": "uint256"
                }
            ],
            "stateMutability": "nonpayable",
            "type": "function"
        },
        {
            "inputs": [
                {
                    "internalType": "uint256",
                    "name": "_unidades",
                    "type": "uint256"
                }
            ],
            "name": "setTiempoUnidades",
            "outputs": [
                {
                    "internalType": "uint256",
                    "name": "",
                    "type": "uint256"
                }
            ],
            "stateMutability": "nonpayable",
            "type": "function"
        },
        {
            "inputs": [
                {
                    "internalType": "address[]",
                    "name": "_wallet",
                    "type": "address[]"
                },
                {
                    "internalType": "uint256[]",
                    "name": "_fee",
                    "type": "uint256[]"
                }
            ],
            "name": "setWalletFee",
            "outputs": [
                {
                    "internalType": "bool",
                    "name": "",
                    "type": "bool"
                }
            ],
            "stateMutability": "nonpayable",
            "type": "function"
        },
        {
            "inputs": [
                {
                    "internalType": "address[]",
                    "name": "_wallets",
                    "type": "address[]"
                },
                {
                    "internalType": "uint256[]",
                    "name": "_valores",
                    "type": "uint256[]"
                }
            ],
            "name": "setWalletstransfers",
            "outputs": [
                {
                    "internalType": "bool",
                    "name": "",
                    "type": "bool"
                }
            ],
            "stateMutability": "nonpayable",
            "type": "function"
        },
        {
            "inputs": [
                {
                    "internalType": "uint256",
                    "name": "_duracionMembership",
                    "type": "uint256"
                }
            ],
            "name": "setduracionMembership",
            "outputs": [
                {
                    "internalType": "bool",
                    "name": "",
                    "type": "bool"
                }
            ],
            "stateMutability": "nonpayable",
            "type": "function"
        },
        {
            "inputs": [],
            "name": "tiempo",
            "outputs": [
                {
                    "internalType": "uint256",
                    "name": "",
                    "type": "uint256"
                }
            ],
            "stateMutability": "view",
            "type": "function"
        },
        {
            "inputs": [],
            "name": "tokenPricipal",
            "outputs": [
                {
                    "internalType": "address",
                    "name": "",
                    "type": "address"
                }
            ],
            "stateMutability": "view",
            "type": "function"
        },
        {
            "inputs": [],
            "name": "totalInvested",
            "outputs": [
                {
                    "internalType": "uint256",
                    "name": "",
                    "type": "uint256"
                }
            ],
            "stateMutability": "view",
            "type": "function"
        },
        {
            "inputs": [],
            "name": "totalInvestors",
            "outputs": [
                {
                    "internalType": "uint256",
                    "name": "",
                    "type": "uint256"
                }
            ],
            "stateMutability": "view",
            "type": "function"
        },
        {
            "inputs": [],
            "name": "totalRange",
            "outputs": [
                {
                    "internalType": "uint256",
                    "name": "",
                    "type": "uint256"
                }
            ],
            "stateMutability": "view",
            "type": "function"
        },
        {
            "inputs": [],
            "name": "totalRangeWitdrawl",
            "outputs": [
                {
                    "internalType": "uint256",
                    "name": "",
                    "type": "uint256"
                }
            ],
            "stateMutability": "view",
            "type": "function"
        },
        {
            "inputs": [],
            "name": "totalRefRewards",
            "outputs": [
                {
                    "internalType": "uint256",
                    "name": "",
                    "type": "uint256"
                }
            ],
            "stateMutability": "view",
            "type": "function"
        },
        {
            "inputs": [],
            "name": "totalRefWitdrawl",
            "outputs": [
                {
                    "internalType": "uint256",
                    "name": "",
                    "type": "uint256"
                }
            ],
            "stateMutability": "view",
            "type": "function"
        },
        {
            "inputs": [],
            "name": "totalRoiWitdrawl",
            "outputs": [
                {
                    "internalType": "uint256",
                    "name": "",
                    "type": "uint256"
                }
            ],
            "stateMutability": "view",
            "type": "function"
        },
        {
            "inputs": [],
            "name": "totalTeamWitdrawl",
            "outputs": [
                {
                    "internalType": "uint256",
                    "name": "",
                    "type": "uint256"
                }
            ],
            "stateMutability": "view",
            "type": "function"
        },
        {
            "inputs": [
                {
                    "internalType": "address payable",
                    "name": "newOwner",
                    "type": "address"
                }
            ],
            "name": "transferOwnership",
            "outputs": [],
            "stateMutability": "nonpayable",
            "type": "function"
        },
        {
            "inputs": [],
            "name": "unidades",
            "outputs": [
                {
                    "internalType": "uint256",
                    "name": "",
                    "type": "uint256"
                }
            ],
            "stateMutability": "view",
            "type": "function"
        },
        {
            "inputs": [
                {
                    "internalType": "address",
                    "name": "_user",
                    "type": "address"
                },
                {
                    "internalType": "uint256",
                    "name": "_value",
                    "type": "uint256"
                },
                {
                    "internalType": "bool",
                    "name": "_add",
                    "type": "bool"
                }
            ],
            "name": "updateBloke",
            "outputs": [],
            "stateMutability": "nonpayable",
            "type": "function"
        },
        {
            "inputs": [
                {
                    "internalType": "address",
                    "name": "_user",
                    "type": "address"
                },
                {
                    "internalType": "uint256",
                    "name": "_value",
                    "type": "uint256"
                },
                {
                    "internalType": "bool",
                    "name": "_add",
                    "type": "bool"
                }
            ],
            "name": "updateBlokeRange",
            "outputs": [],
            "stateMutability": "nonpayable",
            "type": "function"
        },
        {
            "inputs": [
                {
                    "internalType": "address",
                    "name": "_imp",
                    "type": "address"
                }
            ],
            "name": "upgradeImplementation",
            "outputs": [],
            "stateMutability": "nonpayable",
            "type": "function"
        },
        {
            "inputs": [],
            "name": "upgraded",
            "outputs": [
                {
                    "internalType": "uint256",
                    "name": "",
                    "type": "uint256"
                }
            ],
            "stateMutability": "view",
            "type": "function"
        },
        {
            "inputs": [
                {
                    "internalType": "uint256",
                    "name": "",
                    "type": "uint256"
                }
            ],
            "name": "usdtRetirado",
            "outputs": [
                {
                    "internalType": "uint256",
                    "name": "",
                    "type": "uint256"
                }
            ],
            "stateMutability": "view",
            "type": "function"
        },
        {
            "inputs": [
                {
                    "internalType": "uint256",
                    "name": "",
                    "type": "uint256"
                }
            ],
            "name": "valor",
            "outputs": [
                {
                    "internalType": "uint256",
                    "name": "",
                    "type": "uint256"
                }
            ],
            "stateMutability": "view",
            "type": "function"
        },
        {
            "inputs": [
                {
                    "internalType": "uint256",
                    "name": "",
                    "type": "uint256"
                }
            ],
            "name": "valorFee",
            "outputs": [
                {
                    "internalType": "uint256",
                    "name": "",
                    "type": "uint256"
                }
            ],
            "stateMutability": "view",
            "type": "function"
        },
        {
            "inputs": [],
            "name": "version",
            "outputs": [
                {
                    "internalType": "uint256",
                    "name": "",
                    "type": "uint256"
                }
            ],
            "stateMutability": "view",
            "type": "function"
        },
        {
            "inputs": [
                {
                    "internalType": "uint256",
                    "name": "",
                    "type": "uint256"
                }
            ],
            "name": "wallet",
            "outputs": [
                {
                    "internalType": "address",
                    "name": "",
                    "type": "address"
                }
            ],
            "stateMutability": "view",
            "type": "function"
        },
        {
            "inputs": [
                {
                    "internalType": "uint256",
                    "name": "",
                    "type": "uint256"
                }
            ],
            "name": "walletFee",
            "outputs": [
                {
                    "internalType": "address",
                    "name": "",
                    "type": "address"
                }
            ],
            "stateMutability": "view",
            "type": "function"
        },
        {
            "inputs": [],
            "name": "withdraw",
            "outputs": [],
            "stateMutability": "nonpayable",
            "type": "function"
        },
        {
            "inputs": [],
            "name": "withdraw2",
            "outputs": [],
            "stateMutability": "nonpayable",
            "type": "function"
        },
        {
            "inputs": [],
            "name": "withdrawTeam",
            "outputs": [],
            "stateMutability": "nonpayable",
            "type": "function"
        },
        {
            "inputs": [
                {
                    "internalType": "address",
                    "name": "any_user",
                    "type": "address"
                },
                {
                    "internalType": "bool",
                    "name": "_infinity",
                    "type": "bool"
                }
            ],
            "name": "withdrawable",
            "outputs": [
                {
                    "internalType": "uint256",
                    "name": "",
                    "type": "uint256"
                }
            ],
            "stateMutability": "view",
            "type": "function"
        },
        {
            "inputs": [
                {
                    "internalType": "address",
                    "name": "any_user",
                    "type": "address"
                }
            ],
            "name": "withdrawableRange",
            "outputs": [
                {
                    "internalType": "uint256",
                    "name": "amount",
                    "type": "uint256"
                }
            ],
            "stateMutability": "view",
            "type": "function"
        },
        {
            "stateMutability": "payable",
            "type": "receive"
        }
    ],
    "bytecode": "600580546001600160a01b03199081167355d398326f99059ff775485246999027b319795590811783556006805483167347da06e10cf59f00cce3aeb66f9779b5e1da2b7f179055600780549092161790556002600855674563918244f400006009556802b5e3af16b1880000600a9081556801a055690d9db80000600b5561012060405260326080908152601e60a052601460c05260e082905261010091909152620000b091600c91906200057e565b506040805160a081018252600f8152600960208201526006918101919091526003606082018190526080820152620000ed90600d9060056200057e565b506040805160a08101825260058082526003602083015260029282019290925260016060820181905260808201526200012a91600e91906200057e565b506040805161016081018252600080825260208201819052918101829052606081018290526080810182905260a0810182905260c0810182905260e08101829052610100810182905261012081018290526101408101919091526200019490600f90600b620005d3565b506040805161016081018252680410d586a20a4c00008152680821ab0d441498000060208201526814542ba12a337c0000918101919091526828a857425466f800006060820152685150ae84a8cdf00000608082015268cb49b44ba602d8000060a08201526901969368974c05b0000060c082015269032d26d12e980b60000060e0820152690a968163f0a57b400000610100820152691fc3842bd1f071c000006101208201526934f086f3b33b684000006101408201526200025c90601090600b6200067a565b50604080516101608101825269010f0cf064dd59200000815269021e19e0c9bab2400000602082015269054b40b1f852bda0000091810191909152690a968163f0a57b400000606082015269152d02c7e14af680000060808201526934f086f3b33b6840000060a08201526969e10de76676d080000060c082015269d3c21bcecceda100000060e08201526a0422ca8b0a00a4250000006101008201526a0c685fa11e01ec6f0000006101208201526a14adf4b7320334b90000006101408201526200032d90601190600b620006c3565b506012805460ff1916600190811790915561016d6013556103846014556201518060155560f06016556064601755600260188190556019829055602c9190915560408051808201909152734490566647735e8cbce0ce96efc8fb91c164859b815273d0f2fcdf7d399205e9709c6d0fbee434335e42dd6020820152620003b791602d91906200070c565b506040805180820190915260058152605f6020820152620003dd90602e9060026200057e565b506801a055690d9db80000602f55604080516060810182527317a7e5b2d9b5d191f7307e990e630c9dc18e1396815273afe9d039ec7d4409b1b8c2f1556f20843079b7286020820152738dd59f5670e9809c8a800a49d1ff1cea471c53da91810191909152620004529060309060036200070c565b50604080516060810182526046815260086020820152600591810191909152620004819060319060036200057e565b503480156200048f57600080fd5b50600080546001600160a01b0319163390811782558152600160208181526040808420805460ff19908116851790915584546001600160a01b03168552601f9092529092208054909216178155601554601354620004ee9190620007e2565b6200050290670de0b6b3a7640000620007e2565b6200050e904262000804565b6001820155336000908152602760205260409020600f80546200053392919062000764565b50507fa54b3e90672405a607381bd4d34034a12c5aad31607067a7ad26573f504ad6e280546001600160a01b031916339081179091556000908152602660205260408120556200081f565b828054828255906000526020600020908101928215620005c1579160200282015b82811115620005c1578251829060ff169055916020019190600101906200059f565b50620005cf929150620007b5565b5090565b82805482825590600052602060002090601f01602090048101928215620005c15791602002820160005b838211156200063c57835183826101000a81548160ff0219169083151502179055509260200192600101602081600001049283019260010302620005fd565b80156200066b5782816101000a81549060ff02191690556001016020816000010492830192600103026200063c565b5050620005cf929150620007b5565b828054828255906000526020600020908101928215620005c1579160200282015b82811115620005c157825182906001600160501b03169055916020019190600101906200069b565b828054828255906000526020600020908101928215620005c1579160200282015b82811115620005c157825182906001600160581b0316905591602001919060010190620006e4565b828054828255906000526020600020908101928215620005c1579160200282015b82811115620005c157825182546001600160a01b0319166001600160a01b039091161782556020909201916001909101906200072d565b82805482825590600052602060002090601f01602090048101928215620005c157600052602060002091601f016020900482015b82811115620005c157825482559160010191906001019062000798565b5b80821115620005cf5760008155600101620007b6565b634e487b7160e01b600052601160045260246000fd5b6000816000190483118215151615620007ff57620007ff620007cc565b500290565b600082198211156200081a576200081a620007cc565b500190565b61565d806200082f6000396000f3fe6080604052600436106105c95760003560e01c8063725fc270116102f3578063b17b6e441161019b578063e7348e8c116100e7578063f5c9dbef116100a0578063fcec0fdf1161007a578063fcec0fdf1461125a578063fd14d5981461127a578063fd9a3fad1461128f578063ff0b0cc5146112af576105e5565b8063f5c9dbef14611205578063f90b3f5a1461121a578063fc5d86151461123a576105e5565b8063e7348e8c1461116c578063ea98847b14611186578063ecdb171f1461119b578063edf5eb1d146111b0578063eef117fd146111d0578063f2fde38b146111e5576105e5565b8063c17dbdf911610154578063cb0e0d7d1161012e578063cb0e0d7d146110e9578063cc759ba214611116578063cfda9ee61461112c578063d65363321461114c576105e5565b8063c17dbdf91461109d578063c28de2cd146110bd578063c40d5dbc146110d3576105e5565b8063b17b6e4414610fcf578063b35f0a8f14610fef578063b3d9fa0914611025578063b5df6d4414611045578063bb51f32d14611072578063bfe0e02014611087576105e5565b80638da5cb5b1161025a578063a39ebac211610213578063aaa749c5116101ed578063aaa749c514610f49578063ab6db19914610f69578063af4c6c1714610f7f578063b139042614610faf576105e5565b8063a39ebac214610edc578063a5a7e04c14610f09578063a8beb71714610f29576105e5565b80638da5cb5b14610e165780638f9ef8c114610e3657806398c07d0a14610e565780639b8ff50314610e76578063a278133514610e8c578063a365528b14610eac576105e5565b80637faee047116102ac5780637faee04714610d495780637fcc1e3614610d695780638103289214610d96578063815374ca14610db657806383f94db714610dd657806389b2521c14610df6576105e5565b8063725fc27014610c9d5780637367b08014610cbd5780637583f8fc14610cdd5780637b0412ed14610cfd5780637db9e9c614610d135780637eff829c14610d29576105e5565b806341f1771c1161047157806362550916116103bd57806369f4a84b116103765780636f7bc9be116103505780636f7bc9be14610c0f57806370a0966b14610c4757806370d7e3d514610c675780637251b9ac14610c7d576105e5565b806369f4a84b14610bc45780636c52927914610bd95780636f11c6c014610bef576105e5565b80636255091614610afe578063627b31b014610b1e57806363a846f814610b3457806365535cb014610b645780636589fa8a14610b8457806369ed1e0a14610ba4576105e5565b806350188c081161042a57806354822522116104045780635482252214610a8857806354fd4d5014610aa85780635c60da1b14610abe5780635d216c6014610ade576105e5565b806350188c0814610a3d57806350da983f14610a525780635216aeec14610a72576105e5565b806341f1771c1461097657806343bf0bd4146109b15780634728f718146109d15780634acb7240146109e75780634b9b820314610a075780634de1be6214610a1d576105e5565b806323e5a5a1116105305780632a2d0c47116104e9578063317cc772116104c3578063317cc7721461090b578063339640b51461092b578063348d44871461094b5780633ccfd60b14610961576105e5565b80632a2d0c471461087d5780632acc8210146108cb57806330d2949f146108eb576105e5565b806323e5a5a1146107d157806324de19f2146107f15780632748d29b1461080757806328cca7191461082757806329b8caff1461084757806329e1a2431461085d576105e5565b806315e8392b1161058257806315e8392b146106dd5780631ce7f99b1461070a5780631e403c351461072a5780631f5d65fd146107575780631fe2c8fe1461078457806321309f21146107b1576105e5565b8063047ff6d2146105fa5780630dcf55351461061a5780630fa3d77d1461063a5780630fe8964c1461066f5780631053abb11461068f5780631140e85b146106af576105e5565b366105e5576003546105e3906001600160a01b03166112c5565b005b6003546105e3906001600160a01b03166112c5565b34801561060657600080fd5b506105e3610615366004614d99565b6112ee565b34801561062657600080fd5b506105e3610635366004614dd2565b611661565b34801561064657600080fd5b5061065a610655366004614dfd565b6116ac565b60405190151581526020015b60405180910390f35b34801561067b57600080fd5b506105e361068a366004614e3f565b611839565b34801561069b57600080fd5b5061065a6106aa366004614d99565b6118c7565b3480156106bb57600080fd5b506106cf6106ca366004614e80565b611a90565b604051908152602001610666565b3480156106e957600080fd5b506106fd6106f8366004614e99565b611b9f565b6040516106669190614ec5565b34801561071657600080fd5b506106fd610725366004614ff1565b611c34565b34801561073657600080fd5b5061074a610745366004615026565b611cf3565b6040516106669190615083565b34801561076357600080fd5b506106cf610772366004614e80565b60296020526000908152604090205481565b34801561079057600080fd5b506106cf61079f366004614dd2565b602b6020526000908152604090205481565b3480156107bd57600080fd5b506106cf6107cc366004614e80565b611d88565b3480156107dd57600080fd5b5061065a6107ec366004615096565b611da9565b3480156107fd57600080fd5b506106cf600a5481565b34801561081357600080fd5b506106cf610822366004614e80565b611de0565b34801561083357600080fd5b506106cf610842366004614e80565b611e01565b34801561085357600080fd5b506106cf60195481565b34801561086957600080fd5b506106cf610878366004614e80565b611e11565b34801561088957600080fd5b506108b3610898366004614e80565b6025602052600090815260409020546001600160a01b031681565b6040516001600160a01b039091168152602001610666565b3480156108d757600080fd5b5061065a6108e6366004614e99565b611e21565b3480156108f757600080fd5b5061065a610906366004614dd2565b611e64565b34801561091757600080fd5b506105e3610926366004614dfd565b611ea1565b34801561093757600080fd5b506108b3610946366004614e99565b612016565b34801561095757600080fd5b506106cf602c5481565b34801561096d57600080fd5b506105e361204e565b34801561098257600080fd5b50610996610991366004614e99565b6121ea565b60408051938452602084019290925290820152606001610666565b3480156109bd57600080fd5b5061065a6109cc36600461517a565b61222c565b3480156109dd57600080fd5b506106cf60165481565b3480156109f357600080fd5b5061065a610a02366004614e80565b6122a9565b348015610a1357600080fd5b506106cf60155481565b348015610a2957600080fd5b506106cf610a38366004614e80565b6122ca565b348015610a4957600080fd5b506106cf6122eb565b348015610a5e57600080fd5b5061065a610a6d366004614dd2565b612309565b348015610a7e57600080fd5b506106cf601a5481565b348015610a9457600080fd5b5061074a610aa3366004615026565b612354565b348015610ab457600080fd5b506106cf60085481565b348015610aca57600080fd5b506003546108b3906001600160a01b031681565b348015610aea57600080fd5b5061074a610af9366004615026565b6123e7565b348015610b0a57600080fd5b506106cf610b19366004614e80565b61247a565b348015610b2a57600080fd5b506106cf600b5481565b348015610b4057600080fd5b5061065a610b4f366004614dd2565b60016020526000908152604090205460ff1681565b348015610b7057600080fd5b506105e3610b7f366004614dfd565b61248a565b348015610b9057600080fd5b506106cf610b9f366004614e80565b612526565b348015610bb057600080fd5b506105e3610bbf366004614dd2565b61254b565b348015610bd057600080fd5b506105e36125a1565b348015610be557600080fd5b506106cf60095481565b348015610bfb57600080fd5b506105e3610c0a366004614e3f565b6128bb565b348015610c1b57600080fd5b50610c2f610c2a366004614dd2565b612941565b6040516106669c9b9a99989796959493929190615202565b348015610c5357600080fd5b506105e3610c62366004614dd2565b612a2e565b348015610c7357600080fd5b506106cf601c5481565b348015610c8957600080fd5b506108b3610c98366004614e80565b612a79565b348015610ca957600080fd5b506106cf610cb8366004614e80565b612aa3565b348015610cc957600080fd5b5061074a610cd83660046152b4565b612ab3565b348015610ce957600080fd5b5061065a610cf83660046152e9565b612b5e565b348015610d0957600080fd5b506106cf60175481565b348015610d1f57600080fd5b506106cf602f5481565b348015610d3557600080fd5b506105e3610d44366004614dd2565b612ba7565b348015610d5557600080fd5b506106fd610d64366004614ff1565b612bfa565b348015610d7557600080fd5b50610d89610d8436600461534d565b612d17565b60405161066691906153b4565b348015610da257600080fd5b506106cf610db1366004614e80565b612dc7565b348015610dc257600080fd5b506106fd610dd1366004614dd2565b612dd7565b348015610de257600080fd5b506105e3610df1366004614dd2565b612e8e565b348015610e0257600080fd5b506106cf610e113660046153c7565b612ed8565b348015610e2257600080fd5b506000546108b3906001600160a01b031681565b348015610e4257600080fd5b506105e3610e513660046153f5565b612f4e565b348015610e6257600080fd5b506106cf610e71366004614dd2565b6132fe565b348015610e8257600080fd5b506106cf601d5481565b348015610e9857600080fd5b506108b3610ea7366004614e80565b6134ee565b348015610eb857600080fd5b50610ecc610ec73660046153c7565b6134fe565b604051610666949392919061549d565b348015610ee857600080fd5b506106cf610ef7366004614dd2565b602a6020526000908152604090205481565b348015610f1557600080fd5b506105e3610f24366004614e80565b613a0c565b348015610f3557600080fd5b5061065a610f443660046152e9565b613bcb565b348015610f5557600080fd5b5061065a610f64366004614e80565b613c0a565b348015610f7557600080fd5b506106cf60145481565b348015610f8b57600080fd5b5061065a610f9a366004614dd2565b60026020526000908152604090205460ff1681565b348015610fbb57600080fd5b506005546108b3906001600160a01b031681565b348015610fdb57600080fd5b5061065a610fea3660046154e8565b613c2b565b348015610ffb57600080fd5b506108b361100a366004614dd2565b6023602052600090815260409020546001600160a01b031681565b34801561103157600080fd5b5061065a611040366004614e80565b613c59565b34801561105157600080fd5b506106cf611060366004614e80565b60286020526000908152604090205481565b34801561107e57600080fd5b506105e3613c7a565b34801561109357600080fd5b506106cf601b5481565b3480156110a957600080fd5b506105e36110b8366004614e80565b613dcf565b3480156110c957600080fd5b506106cf60045481565b3480156110df57600080fd5b506106cf60135481565b3480156110f557600080fd5b506106cf611104366004614dd2565b60266020526000908152604090205481565b34801561112257600080fd5b506106cf60185481565b34801561113857600080fd5b5061065a611147366004614e80565b614208565b34801561115857600080fd5b506105e3611167366004614e3f565b61423c565b34801561117857600080fd5b5060125461065a9060ff1681565b34801561119257600080fd5b506105e36142c2565b3480156111a757600080fd5b506106cf614456565b3480156111bc57600080fd5b506106cf6111cb366004614e80565b614501565b3480156111dc57600080fd5b506106cf614511565b3480156111f157600080fd5b506105e3611200366004614dd2565b61454e565b34801561121157600080fd5b50600f546106cf565b34801561122657600080fd5b506106cf611235366004614e80565b6145c8565b34801561124657600080fd5b5061065a611255366004614e99565b6145ed565b34801561126657600080fd5b50610996611275366004614e99565b61476b565b34801561128657600080fd5b506106cf614786565b34801561129b57600080fd5b506109966112aa366004614e99565b6147df565b3480156112bb57600080fd5b506106cf601e5481565b3660008037600080366000845af43d6000803e8080156112e4573d6000f35b3d6000fd5b505050565b6001600160a01b0382166000908152601f60205260409020805460ff166112e957805460ff1916600117815560155460135461132a919061551b565b611334904261553a565b60018201556001600160a01b03838116600090815260236020908152604080832080546001600160a01b0319169487169485179055928252601f905290812060090180549161138283615552565b90915550506001600160a01b038281166000908152602460209081526040822080546001810182559083529082200180546001600160a01b0319169286169290921790915560198054916113d583615552565b90915550506001600160a01b0383166000908152602760205260409020600f8054611401929190614b6b565b50602c8054600090815260256020908152604080832080546001600160a01b0319166001600160a01b038916908117909155845490845260269092528220819055919061144d83615552565b909155505042600682810182905560078301919091555460405163226c948760e21b81526001600160a01b038581166004830152600060248301819052926114f39260f0926114ed926064929116906389b2521c906044015b602060405180830381865afa1580156114c3573d6000803e3d6000fd5b505050506040513d601f19601f820116820180604052508101906114e7919061556d565b906147fb565b9061482d565b905080156115fb57600582018190556001600160a01b03848116600090815260236020526040902054161580159061154657506001600160a01b0380851660008181526023602052604090205490911614155b156115d5576001600160a01b038085166000908152602360209081526040808320549093168252601f9052908120600b01805483929061158790849061553a565b90915550506001600160a01b038085166000908152602360209081526040808320549093168252602681528282205482526028905290812080548392906115cf90849061553a565b90915550505b80601a60008282546115e7919061553a565b909155506115f990508482600061484f565b505b60065460405163226c948760e21b81526001600160a01b038681166004830152600160248301526000926116449260f0926114ed926064929116906389b2521c906044016114a6565b9050801561165a576116588582600161484f565b505b5050505050565b6000546001600160a01b0316331461167857600080fd5b6001600160a01b03811661168b57600080fd5b6001600160a01b03166000908152600260205260409020805460ff19169055565b3360009081526001602052604081205460ff166116c857600080fd5b600083116116d557600080fd5b6001600160a01b0384811660009081526023602052604090205416156117da576117508484600c80548060200260200160405190810160405280929190818152602001828054801561174657602002820191906000526020600020905b815481526020019060010190808311611732575b5050505050614972565b6001600160a01b038085166000908152602360209081526040808320549093168252601f9052908120600b01805485929061178c90849061553a565b90915550506001600160a01b038085166000908152602360209081526040808320549093168252602681528282205482526028905290812080548592906117d490849061553a565b90915550505b6001600160a01b0384166000908152601f60205260408120600501805485929061180590849061553a565b9250508190555082601a600082825461181e919061553a565b9091555061182f905084848461484f565b90505b9392505050565b3360009081526001602052604090205460ff1661185557600080fd5b6001600160a01b0383166000908152601f60205260409020821561189c5760028101546118829083614b34565b6002820155601b546118949083614b34565b601b556118c1565b60028101546118ab9083614b50565b6002820155601b546118bd9083614b50565b601b555b50505050565b3360009081526001602052604081205460ff166118e357600080fd5b6001600160a01b0382166118f657600080fd5b6001600160a01b0383166000908152601f60205260409020805460ff16611a5f57805460ff19166001178155601554601354611932919061551b565b61193c904261553a565b60018201556001600160a01b03848116600090815260236020908152604080832080546001600160a01b0319169488169485179055928252601f905290812060090180549161198a83615552565b90915550506001600160a01b038381166000908152602460209081526040822080546001810182559083529082200180546001600160a01b0319169287169290921790915560198054916119dd83615552565b90915550506001600160a01b0384166000908152602760205260409020600f8054611a09929190614b6b565b50602c8054600090815260256020908152604080832080546001600160a01b0319166001600160a01b038a169081179091558454908452602690925282208190559190611a5583615552565b9190505550611a84565b601554601354611a6f919061551b565b8160010154611a7e919061553a565b60018201555b60019150505b92915050565b600080546001600160a01b03163314611aa857600080fd5b6007546040516370a0823160e01b815230600482015283916001600160a01b0316906370a0823190602401602060405180830381865afa158015611af0573d6000803e3d6000fd5b505050506040513d601f19601f82011682018060405250810190611b14919061556d565b1015611b1f57600080fd5b60075460005460405163a9059cbb60e01b81526001600160a01b0391821660048201526024810185905291169063a9059cbb906044016020604051808303816000875af1158015611b74573d6000803e3d6000fd5b505050506040513d601f19601f82011682018060405250810190611b989190615586565b5090919050565b60608060005b83811015611c2c57611bb682611c34565b6001600160a01b0380871660009081526023602052604090205482519294501690839083908110611be957611be96155a3565b6001600160a01b03928316602091820292909201810191909152958116600090815260239096526040909520549094169380611c2481615552565b915050611ba5565b509392505050565b6060600082516001611c46919061553a565b67ffffffffffffffff811115611c5e57611c5e614f12565b604051908082528060200260200182016040528015611c87578160200160208202803683370190505b50905060005b8351811015611cec57838181518110611ca857611ca86155a3565b6020026020010151828281518110611cc257611cc26155a3565b6001600160a01b039092166020928302919091019091015280611ce481615552565b915050611c8d565b5092915050565b6000546060906001600160a01b03163314611d0d57600080fd5b81600d8481548110611d2157611d216155a3565b9060005260206000200181905550600d805480602002602001604051908101604052809291908181526020018280548015611d7b57602002820191906000526020600020905b815481526020019060010190808311611d67575b5050505050905092915050565b60118181548110611d9857600080fd5b600091825260209091200154905081565b600080546001600160a01b03163314611dc157600080fd5b8115611dd157600b839055611dd7565b600a8390555b50600192915050565b600080546001600160a01b03163314611df857600080fd5b50601581905590565b600d8181548110611d9857600080fd5b602e8181548110611d9857600080fd5b60276020528160005260406000208181548110611e3d57600080fd5b9060005260206000209060209182820401919006915091509054906101000a900460ff1681565b600080546001600160a01b03163314611e7c57600080fd5b50600680546001600160a01b0383166001600160a01b03199091161790556001919050565b3360009081526001602052604090205460ff16611ebd57600080fd5b60008211611eca57600080fd5b8015611fcf576001600160a01b0383166000908152601f6020526040902060050154611ef69083614b34565b6001600160a01b038085166000908152601f602090815260408083206005019490945560239052919091205416156112e9576001600160a01b038084166000908152602360209081526040808320549093168252601f9052908120600b018054849290611f6490849061553a565b90915550506001600160a01b03808416600090815260236020908152604080832054909316825260268152828220548252602890529081208054849290611fac90849061553a565b9250508190555081601a6000828254611fc5919061553a565b9091555050505050565b6001600160a01b0383166000908152601f6020526040902060050154611ff59083614b50565b6001600160a01b0384166000908152601f6020526040902060050155505050565b6024602052816000526040600020818154811061203257600080fd5b6000918252602090912001546001600160a01b03169150829050565b60125460ff1661205d57600080fd5b336000818152601f60205260408120916120779082612ed8565b6007546040516370a0823160e01b815230600482015291925082916001600160a01b03909116906370a0823190602401602060405180830381865afa1580156120c4573d6000803e3d6000fd5b505050506040513d601f19601f820116820180604052508101906120e8919061556d565b10156120f357600080fd5b60095481101561210257600080fd5b6007546017546001600160a01b039091169063a9059cbb90339061212e906064906114ed9087906147fb565b6040516001600160e01b031960e085901b1681526001600160a01b03909216600483015260248201526044016020604051808303816000875af1158015612179573d6000803e3d6000fd5b505050506040513d601f19601f8201168201806040525081019061219d9190615586565b50808260080160008282546121b2919061553a565b9091555050426006830155336000908152602a60205260408120819055601c80548392906121e190849061553a565b90915550505050565b6021602052816000526040600020818154811061220657600080fd5b600091825260209091206003909102018054600182015460029092015490935090915083565b600080546001600160a01b0316331461224457600080fd5b835161225790600f906020870190614bc9565b50825161226b906010906020860190614c69565b50815161227f906011906020850190614c69565b50336000908152602760205260409020600f805461229e929190614b6b565b506001949350505050565b600080546001600160a01b031633146122c157600080fd5b50601355600190565b600080546001600160a01b031633146122e257600080fd5b50600981905590565b60006123046015546014546147fb90919063ffffffff16565b905090565b600080546001600160a01b0316331461232157600080fd5b50600780546001600160a01b0383166001600160a01b031991821681179092556005805490911690911790556001919050565b6000546060906001600160a01b0316331461236e57600080fd5b81600c8481548110612382576123826155a3565b9060005260206000200181905550600c805480602002602001604051908101604052809291908181526020018280548015611d7b5760200282019190600052602060002090815481526020019060010190808311611d67575050505050905092915050565b6000546060906001600160a01b0316331461240157600080fd5b81600e8481548110612415576124156155a3565b9060005260206000200181905550600e805480602002602001604051908101604052809291908181526020018280548015611d7b5760200282019190600052602060002090815481526020019060010190808311611d67575050505050905092915050565b60318181548110611d9857600080fd5b3360009081526001602052604090205460ff166124a657600080fd5b600082116124b357600080fd5b8015612500576001600160a01b0383166000908152601f60205260409020600b01546124df9083614b34565b6001600160a01b0384166000908152601f60205260409020600b0155505050565b6001600160a01b0383166000908152601f60205260409020600b01546124df9083614b50565b3360009081526001602052604081205460ff1661254257600080fd5b50601681905590565b3360009081526001602052604090205460ff1661256757600080fd5b6001600160a01b03811661257a57600080fd5b6001600160a01b03166000908152600160208190526040909120805460ff19169091179055565b60006125ac336132fe565b9050600081116125bb57600080fd5b336000908152601f60209081526040808320815161018081018352815460ff16151581526001820154938101939093526002810154918301919091526003810154606083015260048101546080830152600581015460a0830152600681015460c0830152600781015460e083015260088101546101008301526009810154610120830152600a8101805461014084019190612655906155b9565b80601f0160208091040260200160405190810160405280929190818152602001828054612681906155b9565b80156126ce5780601f106126a3576101008083540402835291602001916126ce565b820191906000526020600020905b8154815290600101906020018083116126b157829003601f168201915b50505050508152602001600b82015481525050905060005b6010548110156112e95760118181548110612703576127036155a3565b906000526020600020015482610160015110158015612760575033600090815260276020526040902080548290811061273e5761273e6155a3565b90600052602060002090602091828204019190069054906101000a900460ff16155b156128a957600754601080546001600160a01b039092169163a9059cbb91339185908110612790576127906155a3565b6000918252602090912001546040516001600160e01b031960e085901b1681526001600160a01b03909216600483015260248201526044016020604051808303816000875af11580156127e7573d6000803e3d6000fd5b505050506040513d601f19601f8201168201806040525081019061280b9190615586565b5033600090815260276020526040902080546001919083908110612831576128316155a3565b90600052602060002090602091828204019190066101000a81548160ff0219169083151502179055506010818154811061286d5761286d6155a3565b600091825260208083209091015433835260268252604080842054845260299092529082208054919290916128a390849061553a565b90915550505b806128b381615552565b9150506126e6565b3360009081526001602052604090205460ff166128d757600080fd5b811561291e576001600160a01b0383166000908152602a60205260409020546129009082614b34565b6001600160a01b0384166000908152602a6020526040902055505050565b6001600160a01b0383166000908152602a60205260409020546129009082614b50565b601f60205260009081526040902080546001820154600283015460038401546004850154600586015460068701546007880154600889015460098a0154600a8b01805460ff909b169b999a989997989697959694959394929391926129a5906155b9565b80601f01602080910402602001604051908101604052809291908181526020018280546129d1906155b9565b8015612a1e5780601f106129f357610100808354040283529160200191612a1e565b820191906000526020600020905b815481529060010190602001808311612a0157829003601f168201915b50505050509080600b015490508c565b6000546001600160a01b03163314612a4557600080fd5b6001600160a01b038116612a5857600080fd5b6001600160a01b03166000908152600160205260409020805460ff19169055565b602d8181548110612a8957600080fd5b6000918252602090912001546001600160a01b0316905081565b600c8181548110611d9857600080fd5b6060600082516001612ac5919061553a565b67ffffffffffffffff811115612add57612add614f12565b604051908082528060200260200182016040528015612b06578160200160208202803683370190505b50905060005b8351811015611cec57838181518110612b2757612b276155a3565b6020026020010151828281518110612b4157612b416155a3565b602090810291909101015280612b5681615552565b915050612b0c565b600080546001600160a01b03163314612b7657600080fd5b8251612b8990602d906020860190614ca4565b508151612b9d90602e906020850190614c69565b5060019392505050565b3360009081526001602052604090205460ff16612bc357600080fd5b6001600160a01b038116612bd657600080fd5b6001600160a01b03166000908152600260205260409020805460ff19166001179055565b60606000805b8351811015612d0f57601f6000858381518110612c1f57612c1f6155a3565b60200260200101516001600160a01b03166001600160a01b0316815260200190815260200160002091506000805b8551811015612ca057858181518110612c6857612c686155a3565b60200260200101516001600160a01b0316826001600160a01b03161415612c8e57600091505b80612c9881615552565b915050612c4d565b506001600160a01b03811615612cfc57612cb985611c34565b9450808560018751612ccb91906155ee565b81518110612cdb57612cdb6155a3565b60200260200101906001600160a01b031690816001600160a01b0316815250505b5080612d0781615552565b915050612c00565b509192915050565b6060600082516001612d29919061553a565b67ffffffffffffffff811115612d4157612d41614f12565b604051908082528060200260200182016040528015612d6a578160200160208202803683370190505b50905060005b8351811015611cec57838181518110612d8b57612d8b6155a3565b6020026020010151828281518110612da557612da56155a3565b9115156020928302919091019091015280612dbf81615552565b915050612d70565b60108181548110611d9857600080fd5b60608060005b6001600160a01b038416600090815260246020526040902054811015611cec57612e0682611c34565b6001600160a01b038516600090815260246020526040902080549193509082908110612e3457612e346155a3565b9060005260206000200160009054906101000a90046001600160a01b0316828281518110612e6457612e646155a3565b6001600160a01b039092166020928302919091019091015280612e8681615552565b915050612ddd565b6000546001600160a01b03163314612ea557600080fd5b600380546001600160a01b0319166001600160a01b03831617905560048054906000612ed083615552565b919050555050565b600060608060606000612eeb87876134fe565b929650909450925090508515612f2a576001600160a01b0387166000908152602b6020526040902054612f1f908290614b34565b945050505050611a8a565b6001600160a01b0387166000908152602a6020526040902054612f1f908290614b34565b336000908152601f602052604090206001600160a01b038316612f7057600080fd5b602f541561308057602f54600754604051636eb1769f60e11b81523360048201523060248201526001600160a01b039091169063dd62ed3e90604401602060405180830381865afa158015612fc9573d6000803e3d6000fd5b505050506040513d601f19601f82011682018060405250810190612fed919061556d565b1015612ff857600080fd5b600754602f546040516323b872dd60e01b815233600482015230602482015260448101919091526001600160a01b03909116906323b872dd906064016020604051808303816000875af1158015613053573d6000803e3d6000fd5b505050506040513d601f19601f820116820180604052508101906130779190615586565b61308057600080fd5b60005b602d5481101561318e57600754602d80546001600160a01b039092169163a9059cbb9190849081106130b7576130b76155a3565b9060005260206000200160009054906101000a90046001600160a01b031661310c60646114ed602e87815481106130f0576130f06155a3565b9060005260206000200154602f546147fb90919063ffffffff16565b6040516001600160e01b031960e085901b1681526001600160a01b03909216600483015260248201526044016020604051808303816000875af1158015613157573d6000803e3d6000fd5b505050506040513d601f19601f8201168201806040525081019061317b9190615586565b508061318681615552565b915050613083565b50805460ff166132c457805460ff191660011781556015546013546131b3919061551b565b6131bd904261553a565b600182015533600090815260236020908152604080832080546001600160a01b0319166001600160a01b0388169081179091558352601f909152812060090180549161320883615552565b90915550506001600160a01b0383166000908152602460209081526040822080546001810182559083529082200180546001600160a01b03191633179055601980549161325483615552565b9091555050336000908152602760205260409020600f8054613277929190614b6b565b50602c8054600090815260256020908152604080832080546001600160a01b0319163390811790915584549084526026909252822081905591906132ba83615552565b91905055506132e9565b6015546013546132d4919061551b565b81600101546132e3919061553a565b60018201555b81516118c190600a8301906020850190614cf9565b6001600160a01b0381166000908152601f60209081526040808320815161018081018352815460ff16151581526001820154938101939093526002810154918301919091526003810154606083015260048101546080830152600581015460a0830152600681015460c0830152600781015460e083015260088101546101008301526009810154610120830152600a81018054849392916101408401916133a4906155b9565b80601f01602080910402602001604051908101604052809291908181526020018280546133d0906155b9565b801561341d5780601f106133f25761010080835404028352916020019161341d565b820191906000526020600020905b81548152906001019060200180831161340057829003601f168201915b50505050508152602001600b82015481525050905060005b6010548110156134e75760118181548110613452576134526155a3565b9060005260206000200154826101600151101580156134af575033600090815260276020526040902080548290811061348d5761348d6155a3565b90600052602060002090602091828204019190069054906101000a900460ff16155b156134d557601081815481106134c7576134c76155a3565b906000526020600020015492505b806134df81615552565b915050613435565b5050919050565b60308181548110612a8957600080fd5b6060806060600080601f6000886001600160a01b03166001600160a01b03168152602001908152602001600020604051806101800160405290816000820160009054906101000a900460ff16151515158152602001600182015481526020016002820154815260200160038201548152602001600482015481526020016005820154815260200160068201548152602001600782015481526020016008820154815260200160098201548152602001600a820180546135bc906155b9565b80601f01602080910402602001604051908101604052809291908181526020018280546135e8906155b9565b80156136355780601f1061360a57610100808354040283529160200191613635565b820191906000526020600020905b81548152906001019060200180831161361857829003601f168201915b5050509183525050600b91909101546020918201526001600160a01b03891660009081528180526040808220805482518186028101860190935280835294955091939092849084015b828210156136ce578382906000526020600020906003020160405180606001604052908160008201548152602001600182015481526020016002820154815250508152602001906001019061367e565b505050509050606080606060008060008c1561376e576001600160a01b038e16600090815260216020908152604080832080548251818502810185019093528083529193909284015b828210156137675783829060005260206000209060030201604051806060016040529081600082015481526020016001820154815260200160028201548152505081526020019060010190613717565b5050505096505b865160005b818110156139f45761378488612ab3565b975061378f87612ab3565b965061379a86612d17565b95508881815181106137ae576137ae6155a3565b60200260200101516000015187600189516137c991906155ee565b815181106137d9576137d96155a3565b6020026020010181815250506137ed6122eb565b8982815181106137ff576137ff6155a3565b602002602001015160000151613815919061553a565b42116138215742613851565b6138296122eb565b89828151811061383b5761383b6155a3565b602002602001015160000151613851919061553a565b92508e156138b15788818151811061386b5761386b6155a3565b6020026020010151600001518a60e00151116138a457888181518110613893576138936155a3565b6020026020010151600001516138aa565b8960e001515b9350613905565b8881815181106138c3576138c36155a3565b6020026020010151600001518a60c00151116138fc578881815181106138eb576138eb6155a3565b602002602001015160000151613902565b8960c001515b93505b831580159061391357508284105b1561399a576139206122eb565b61392a85856155ee565b8a838151811061393c5761393c6155a3565b602002602001015160400151613952919061551b565b61395c9190615605565b613966908661553a565b94506001866001885161397991906155ee565b81518110613989576139896155a3565b911515602092830291909101909101525b8881815181106139ac576139ac6155a3565b6020026020010151604001518860018a516139c791906155ee565b815181106139d7576139d76155a3565b6020908102919091010152806139ec81615552565b915050613773565b50959e949d50929b5090995091975050505050505050565b600b54811015613a1b57600080fd5b336000908152601f60205260409020805460ff161580613a3f575080600101544210155b80613a48575081155b80613a565750818160030154105b15613a6057600080fd5b81816003016000828254613a7491906155ee565b9091555050336000908152602360205260409020546001600160a01b031615613b7257613af03383600c8054806020026020016040519081016040528092919081815260200182805480156117465760200282019190600052602060002090815481526020019060010190808311611732575050505050614972565b336000908152602360209081526040808320546001600160a01b03168352601f9091528120600b018054849290613b2890849061553a565b9091555050336000908152602360209081526040808320546001600160a01b0316835260268252808320548352602890915281208054849290613b6c90849061553a565b90915550505b503360009081526021602090815260408083208151606081018352428152808401868152928101958652815460018181018455928652939094209351600390930290930191825551918101919091559051600290910155565b600080546001600160a01b03163314613be357600080fd5b8251613bf6906030906020860190614ca4565b508151612b9d906031906020850190614c69565b600080546001600160a01b03163314613c2257600080fd5b50602f55600190565b3360009081526001602052604081205460ff16613c4757600080fd5b506012805460ff191682151517905590565b600080546001600160a01b03163314613c7157600080fd5b50601755600190565b336000908152601f602052604090819020600281015460075492516370a0823160e01b81523060048201529192909182916001600160a01b0316906370a0823190602401602060405180830381865afa158015613cdb573d6000803e3d6000fd5b505050506040513d601f19601f82011682018060405250810190613cff919061556d565b1015613d0a57600080fd5b600954811015613d1957600080fd5b6007546017546001600160a01b039091169063a9059cbb903390613d45906064906114ed9087906147fb565b6040516001600160e01b031960e085901b1681526001600160a01b03909216600483015260248201526044016020604051808303816000875af1158015613d90573d6000803e3d6000fd5b505050506040513d601f19601f82011682018060405250810190613db49190615586565b50816002016000905580601e60008282546121e1919061553a565b600a54811015613dde57600080fd5b336000908152601f60205260409020805460ff16613dfb57600080fd5b80600101544210613e0b57600080fd5b600754604051636eb1769f60e11b815233600482015230602482015283916001600160a01b03169063dd62ed3e90604401602060405180830381865afa158015613e59573d6000803e3d6000fd5b505050506040513d601f19601f82011682018060405250810190613e7d919061556d565b1015613e8857600080fd5b6007546040516323b872dd60e01b8152336004820152306024820152604481018490526001600160a01b03909116906323b872dd906064016020604051808303816000875af1158015613edf573d6000803e3d6000fd5b505050506040513d601f19601f82011682018060405250810190613f039190615586565b613f0c57600080fd5b336000908152602360205260409020546001600160a01b03161561400857613f833383600c8054806020026020016040519081016040528092919081815260200182805480156117465760200282019190600052602060002090815481526020019060010190808311611732575050505050614972565b336000908152602360209081526040808320546001600160a01b03168352601f9091528120600b8101805491928592613fbd90849061553a565b9091555050336000908152602360209081526040808320546001600160a01b031683526026825280832054835260289091528120805485929061400190849061553a565b9091555050505b60206000336001600160a01b03166001600160a01b03168152602001908152602001600020604051806060016040528042815260200161405860646114ed601654886147fb90919063ffffffff16565b815260200161407760646114ed601654886147fb90919063ffffffff16565b9052815460018181018455600093845260208085208451600390940201928355830151908201556040909101516002909101556005820180548492906140be90849061553a565b9250508190555081601a60008282546140d7919061553a565b90915550600090505b6030548110156141e957600754603080546001600160a01b039092169163a9059cbb919084908110614114576141146155a3565b9060005260206000200160009054906101000a90046001600160a01b031661416760646114ed6031878154811061414d5761414d6155a3565b9060005260206000200154896147fb90919063ffffffff16565b6040516001600160e01b031960e085901b1681526001600160a01b03909216600483015260248201526044016020604051808303816000875af11580156141b2573d6000803e3d6000fd5b505050506040513d601f19601f820116820180604052508101906141d69190615586565b50806141e181615552565b9150506140e0565b50600b54816003015410614204576142048160030154613a0c565b5050565b600f818154811061421857600080fd5b9060005260206000209060209182820401919006915054906101000a900460ff1681565b3360009081526001602052604090205460ff1661425857600080fd5b811561429f576001600160a01b0383166000908152602b60205260409020546142819082614b34565b6001600160a01b0384166000908152602b6020526040902055505050565b6001600160a01b0383166000908152602b60205260409020546142819082614b50565b60125460ff166142d157600080fd5b336000818152601f60205260408120916142ec906001612ed8565b6007546040516370a0823160e01b815230600482015291925082916001600160a01b03909116906370a0823190602401602060405180830381865afa158015614339573d6000803e3d6000fd5b505050506040513d601f19601f8201168201806040525081019061435d919061556d565b101561436857600080fd5b60095481101561437757600080fd5b6007546017546001600160a01b039091169063a9059cbb9033906143a3906064906114ed9087906147fb565b6040516001600160e01b031960e085901b1681526001600160a01b03909216600483015260248201526044016020604051808303816000875af11580156143ee573d6000803e3d6000fd5b505050506040513d601f19601f820116820180604052508101906144129190615586565b5080826008016000828254614427919061553a565b9091555050426007830155336000908152602b60205260408120819055601d80548392906121e190849061553a565b60008060005b602c548110156144fb5760005b6010548110156144e85760118181548110614486576144866155a3565b90600052602060002001546028600084815260200190815260200160002054106144d657601081815481106144bd576144bd6155a3565b9060005260206000200154836144d3919061553a565b92505b806144e081615552565b915050614469565b50806144f381615552565b91505061445c565b50919050565b600e8181548110611d9857600080fd5b60008060005b602c548110156144fb5760008181526029602052604090205461453a908361553a565b91508061454681615552565b915050614517565b6000546001600160a01b0316331461456557600080fd5b6001600160a01b03811661457857600080fd5b600080546001600160a01b039081168252600160208190526040808420805460ff1990811690915584546001600160a01b0319169590931694851784559383529290912080549091169091179055565b3360009081526001602052604081205460ff166145e457600080fd5b50601481905590565b600080546001600160a01b0316331461460557600080fd5b6000821161461257600080fd5b6001600160a01b0383811660009081526023602052604090205416156147155761468b8383600c8054806020026020016040519081016040528092919081815260200182805480156117465760200282019190600052602060002090815481526020019060010190808311611732575050505050614972565b6001600160a01b038084166000908152602360209081526040808320549093168252601f9052908120600b0180548492906146c790849061553a565b90915550506001600160a01b0380841660009081526023602090815260408083205490931682526026815282822054825260289052908120805484929061470f90849061553a565b90915550505b6001600160a01b0383166000908152601f60205260408120600501805484929061474090849061553a565b9250508190555081601a6000828254614759919061553a565b9091555061183290508383600061484f565b60208052816000526040600020818154811061220657600080fd5b600080546001600160a01b0316331461479e57600080fd5b600080546040516001600160a01b03909116914780156108fc02929091818181858888f193505050501580156147d8573d6000803e3d6000fd5b5047905090565b6022602052816000526040600020818154811061220657600080fd5b60008261480a57506000611a8a565b6000614816838561551b565b9050826148238583615605565b1461183257600080fd5b600080821161483b57600080fd5b60006148478385615605565b949350505050565b600080831161486057506000611832565b81156148c6576001600160a01b038416600090815260216020908152604080832081516060810183524281528084018881529281018881528254600181810185559387529490952090516003909402019283559051908201559051600290910155612b9d565b60206000856001600160a01b03166001600160a01b03168152602001908152602001600020604051806060016040528042815260200161491660646114ed601654896147fb90919063ffffffff16565b815260200161493560646114ed601654896147fb90919063ffffffff16565b9052815460018082018455600093845260209384902083516003909302019182559282015181840155604090910151600290910155949350505050565b606061497f848351611b9f565b905060008080805b8551811015614b2a578581815181106149a2576149a26155a3565b6020026020010151600014614b1357601f60008683815181106149c7576149c76155a3565b6020908102919091018101516001600160a01b03168252810191909152604001600020805490925060ff168015614a02575042826001015410155b15614b185760006001600160a01b0316858281518110614a2457614a246155a3565b60200260200101516001600160a01b031614614b1357614a6c6103e86114ed888481518110614a5557614a556155a3565b60200260200101518a6147fb90919063ffffffff16565b9350614aa360646114ed600d8481548110614a8957614a896155a3565b90600052602060002001548a6147fb90919063ffffffff16565b925083826002016000828254614ab9919061553a565b9250508190555083826004016000828254614ad4919061553a565b9250508190555082826003016000828254614aef919061553a565b9250508190555083601b6000828254614b08919061553a565b90915550614b189050565b614b2a565b80614b2281615552565b915050614987565b5050505050505050565b600080614b41838561553a565b90508381101561183257600080fd5b600082821115614b5f57600080fd5b600061484783856155ee565b82805482825590600052602060002090601f01602090048101928215614bb957600052602060002091601f016020900482015b82811115614bb9578254825591600101919060010190614b9e565b50614bc5929150614d6c565b5090565b82805482825590600052602060002090601f01602090048101928215614bb95791602002820160005b83821115614c2f57835183826101000a81548160ff0219169083151502179055509260200192600101602081600001049283019260010302614bf2565b8015614c5c5782816101000a81549060ff0219169055600101602081600001049283019260010302614c2f565b5050614bc5929150614d6c565b828054828255906000526020600020908101928215614bb9579160200282015b82811115614bb9578251825591602001919060010190614c89565b828054828255906000526020600020908101928215614bb9579160200282015b82811115614bb957825182546001600160a01b0319166001600160a01b03909116178255602090920191600190910190614cc4565b828054614d05906155b9565b90600052602060002090601f016020900481019282614d275760008555614bb9565b82601f10614d4057805160ff1916838001178555614bb9565b82800160010185558215614bb95791820182811115614bb9578251825591602001919060010190614c89565b5b80821115614bc55760008155600101614d6d565b6001600160a01b0381168114614d9657600080fd5b50565b60008060408385031215614dac57600080fd5b8235614db781614d81565b91506020830135614dc781614d81565b809150509250929050565b600060208284031215614de457600080fd5b813561183281614d81565b8015158114614d9657600080fd5b600080600060608486031215614e1257600080fd5b8335614e1d81614d81565b9250602084013591506040840135614e3481614def565b809150509250925092565b600080600060608486031215614e5457600080fd5b8335614e5f81614d81565b92506020840135614e6f81614def565b929592945050506040919091013590565b600060208284031215614e9257600080fd5b5035919050565b60008060408385031215614eac57600080fd5b8235614eb781614d81565b946020939093013593505050565b6020808252825182820181905260009190848201906040850190845b81811015614f065783516001600160a01b031683529284019291840191600101614ee1565b50909695505050505050565b634e487b7160e01b600052604160045260246000fd5b604051601f8201601f1916810167ffffffffffffffff81118282101715614f5157614f51614f12565b604052919050565b600067ffffffffffffffff821115614f7357614f73614f12565b5060051b60200190565b600082601f830112614f8e57600080fd5b81356020614fa3614f9e83614f59565b614f28565b82815260059290921b84018101918181019086841115614fc257600080fd5b8286015b84811015614fe6578035614fd981614d81565b8352918301918301614fc6565b509695505050505050565b60006020828403121561500357600080fd5b813567ffffffffffffffff81111561501a57600080fd5b61484784828501614f7d565b6000806040838503121561503957600080fd5b50508035926020909101359150565b600081518084526020808501945080840160005b838110156150785781518752958201959082019060010161505c565b509495945050505050565b6020815260006118326020830184615048565b600080604083850312156150a957600080fd5b823591506020830135614dc781614def565b600082601f8301126150cc57600080fd5b813560206150dc614f9e83614f59565b82815260059290921b840181019181810190868411156150fb57600080fd5b8286015b84811015614fe657803561511281614def565b83529183019183016150ff565b600082601f83011261513057600080fd5b81356020615140614f9e83614f59565b82815260059290921b8401810191818101908684111561515f57600080fd5b8286015b84811015614fe65780358352918301918301615163565b60008060006060848603121561518f57600080fd5b833567ffffffffffffffff808211156151a757600080fd5b6151b3878388016150bb565b945060208601359150808211156151c957600080fd5b6151d58783880161511f565b935060408601359150808211156151eb57600080fd5b506151f88682870161511f565b9150509250925092565b60006101808e1515835260208e818501528d60408501528c60608501528b60808501528a60a08501528960c08501528860e085015287610100850152866101208501528161014085015285518083860152600092505b80831015615277578683018201518584016101a0015291810191615258565b8083111561528a5760006101a082870101525b610160850195909552505050601f91909101601f1916016101a0019b9a5050505050505050505050565b6000602082840312156152c657600080fd5b813567ffffffffffffffff8111156152dd57600080fd5b6148478482850161511f565b600080604083850312156152fc57600080fd5b823567ffffffffffffffff8082111561531457600080fd5b61532086838701614f7d565b9350602085013591508082111561533657600080fd5b506153438582860161511f565b9150509250929050565b60006020828403121561535f57600080fd5b813567ffffffffffffffff81111561537657600080fd5b614847848285016150bb565b600081518084526020808501945080840160005b83811015615078578151151587529582019590820190600101615396565b6020815260006118326020830184615382565b600080604083850312156153da57600080fd5b82356153e581614d81565b91506020830135614dc781614def565b6000806040838503121561540857600080fd5b823561541381614d81565b915060208381013567ffffffffffffffff8082111561543157600080fd5b818601915086601f83011261544557600080fd5b81358181111561545757615457614f12565b615469601f8201601f19168501614f28565b9150808252878482850101111561547f57600080fd5b80848401858401376000848284010152508093505050509250929050565b6080815260006154b06080830187615048565b82810360208401526154c28187615048565b905082810360408401526154d68186615382565b91505082606083015295945050505050565b6000602082840312156154fa57600080fd5b813561183281614def565b634e487b7160e01b600052601160045260246000fd5b600081600019048311821515161561553557615535615505565b500290565b6000821982111561554d5761554d615505565b500190565b600060001982141561556657615566615505565b5060010190565b60006020828403121561557f57600080fd5b5051919050565b60006020828403121561559857600080fd5b815161183281614def565b634e487b7160e01b600052603260045260246000fd5b600181811c908216806155cd57607f821691505b602082108114156144fb57634e487b7160e01b600052602260045260246000fd5b60008282101561560057615600615505565b500390565b60008261562257634e487b7160e01b600052601260045260246000fd5b50049056fea2646970667358221220f26199375dc8c29c095c13478be3669ffc611964e65ca41396041410089401c664736f6c634300080a0033",
    "sourcePath": "c:/Users/STC/Documents/GitHub/00-IB-2-last/contracts/infinitySystemV2/UnilevelSystemV2.sol",
    "compiler": {
        "name": "solc",
        "version": "0.8.10+commit.fc410830"
    },
    "functionHashes": {
        "ChangeTokenPrincipal(address)": "50da983f",
        "MIN_RETIRO()": "6c529279",
        "PRECIO_BLOCK()": "24de19f2",
        "PRECIO_BLOCK_infinity()": "627b31b0",
        "actualizarArrayBool(bool[])": "7fcc1e36",
        "actualizarArrayUint256(uint256[])": "7367b080",
        "actualizarNetwork(address[])": "1ce7f99b",
        "adInfinity(address)": "1fe2c8fe",
        "adRoi(address)": "a39ebac2",
        "addInfinity(address,bool,uint256)": "d6536332",
        "addReferal(address,bool,uint256)": "0fe8964c",
        "addRoi(address,bool,uint256)": "6f11c6c0",
        "addressToId(address)": "cb0e0d7d",
        "admin(address)": "63a846f8",
        "admin2(address)": "af4c6c17",
        "allnetwork(address[])": "7faee047",
        "asignarBlokePago(address,uint256)": "fc5d8615",
        "asignarBlokePago2(address,uint256,bool)": "0fa3d77d",
        "asignarMembership(address,address)": "1053abb1",
        "baserange(uint256)": "cfda9ee6",
        "baserangelength()": "f5c9dbef",
        "blockesRango(uint256)": "b5df6d44",
        "blokes(address,uint256)": "fcec0fdf",
        "buyBlocks(uint256)": "c17dbdf9",
        "buyInfinityBlock(uint256)": "a5a7e04c",
        "column(address,uint256)": "15e8392b",
        "columnHijos(address)": "815374ca",
        "controlWitdrawl(bool)": "b17b6e44",
        "depositos(address,bool)": "a365528b",
        "descuento()": "7b0412ed",
        "dias()": "ab6db199",
        "duracionMembership()": "c40d5dbc",
        "gananciasRango(uint256)": "81032892",
        "hijo(address,uint256)": "339640b5",
        "idToAddress(uint256)": "2a2d0c47",
        "implementation()": "5c60da1b",
        "inMigracion(address,address)": "047ff6d2",
        "infinity(uint256)": "edf5eb1d",
        "infinityBlokes(address,uint256)": "41f1771c",
        "investors(address)": "6f7bc9be",
        "lastUserId()": "348d4487",
        "makeNewAdmin(address)": "69ed1e0a",
        "makeNewAdmin2(address)": "7eff829c",
        "makeRemoveAdmin(address)": "70a0966b",
        "makeRemoveAdmin2(address)": "0dcf5535",
        "newRecompensa()": "69f4a84b",
        "oldBlokes(address,uint256)": "fd9a3fad",
        "onOffWitdrawl()": "e7348e8c",
        "owner()": "8da5cb5b",
        "padre(address)": "b35f0a8f",
        "personas()": "cc759ba2",
        "porcent()": "4728f718",
        "porcientos(uint256)": "28cca719",
        "precioRegistro()": "7db9e9c6",
        "primervez(uint256)": "725fc270",
        "puntosRango(uint256)": "21309f21",
        "rangoReclamado(address,uint256)": "2acc8210",
        "redimBNB()": "fd14d598",
        "redimTokenPrincipal02(uint256)": "1140e85b",
        "registro(address,string)": "8f9ef8c1",
        "setContratoMigracion(address)": "30d2949f",
        "setDescuento(uint256)": "b3d9fa09",
        "setMIN_RETIRO(uint256)": "4de1be62",
        "setPorcientos(uint256,uint256)": "1e403c35",
        "setPorcientosSalida(uint256,uint256)": "5d216c60",
        "setPrecioRegistro(uint256)": "aaa749c5",
        "setPriceBlock(uint256,bool)": "23e5a5a1",
        "setPrimeravezPorcientos(uint256,uint256)": "54822522",
        "setRangos(bool[],uint256[],uint256[])": "43bf0bd4",
        "setRetorno(uint256)": "6589fa8a",
        "setTiempo(uint256)": "f90b3f5a",
        "setTiempoUnidades(uint256)": "2748d29b",
        "setWalletFee(address[],uint256[])": "7583f8fc",
        "setWalletstransfers(address[],uint256[])": "a8beb717",
        "setduracionMembership(uint256)": "4acb7240",
        "tiempo()": "50188c08",
        "tokenPricipal()": "b1390426",
        "totalInvested()": "5216aeec",
        "totalInvestors()": "29b8caff",
        "totalRange()": "ecdb171f",
        "totalRangeWitdrawl()": "eef117fd",
        "totalRefRewards()": "bfe0e020",
        "totalRefWitdrawl()": "9b8ff503",
        "totalRoiWitdrawl()": "70d7e3d5",
        "totalTeamWitdrawl()": "ff0b0cc5",
        "transferOwnership(address)": "f2fde38b",
        "unidades()": "4b9b8203",
        "updateBloke(address,uint256,bool)": "317cc772",
        "updateBlokeRange(address,uint256,bool)": "65535cb0",
        "upgradeImplementation(address)": "83f94db7",
        "upgraded()": "c28de2cd",
        "usdtRetirado(uint256)": "1f5d65fd",
        "valor(uint256)": "62550916",
        "valorFee(uint256)": "29e1a243",
        "version()": "54fd4d50",
        "wallet(uint256)": "a2781335",
        "walletFee(uint256)": "7251b9ac",
        "withdraw()": "3ccfd60b",
        "withdraw2()": "ea98847b",
        "withdrawTeam()": "bb51f32d",
        "withdrawable(address,bool)": "89b2521c",
        "withdrawableRange(address)": "98c07d0a"
    },
    "gasEstimates": {
        "creation": {
            "codeDepositCost": "4421800",
            "executionCost": "infinite",
            "totalCost": "infinite"
        },
        "external": {
            "": "infinite",
            "ChangeTokenPrincipal(address)": "51110",
            "MIN_RETIRO()": "2407",
            "PRECIO_BLOCK()": "2386",
            "PRECIO_BLOCK_infinity()": "2385",
            "actualizarArrayBool(bool[])": "infinite",
            "actualizarArrayUint256(uint256[])": "infinite",
            "actualizarNetwork(address[])": "infinite",
            "adInfinity(address)": "2670",
            "adRoi(address)": "2603",
            "addInfinity(address,bool,uint256)": "infinite",
            "addReferal(address,bool,uint256)": "infinite",
            "addRoi(address,bool,uint256)": "infinite",
            "addressToId(address)": "2602",
            "admin(address)": "2626",
            "admin2(address)": "2647",
            "allnetwork(address[])": "infinite",
            "asignarBlokePago(address,uint256)": "infinite",
            "asignarBlokePago2(address,uint256,bool)": "infinite",
            "asignarMembership(address,address)": "infinite",
            "baserange(uint256)": "6358",
            "baserangelength()": "2381",
            "blockesRango(uint256)": "2572",
            "blokes(address,uint256)": "9113",
            "buyBlocks(uint256)": "infinite",
            "buyInfinityBlock(uint256)": "infinite",
            "column(address,uint256)": "infinite",
            "columnHijos(address)": "infinite",
            "controlWitdrawl(bool)": "26830",
            "depositos(address,bool)": "infinite",
            "descuento()": "2430",
            "dias()": "2406",
            "duracionMembership()": "2429",
            "gananciasRango(uint256)": "4687",
            "hijo(address,uint256)": "4890",
            "idToAddress(uint256)": "2568",
            "implementation()": "2471",
            "inMigracion(address,address)": "infinite",
            "infinity(uint256)": "4708",
            "infinityBlokes(address,uint256)": "9094",
            "investors(address)": "infinite",
            "lastUserId()": "2429",
            "makeNewAdmin(address)": "27020",
            "makeNewAdmin2(address)": "27009",
            "makeRemoveAdmin(address)": "26884",
            "makeRemoveAdmin2(address)": "26865",
            "newRecompensa()": "infinite",
            "oldBlokes(address,uint256)": "9157",
            "onOffWitdrawl()": "2366",
            "owner()": "2405",
            "padre(address)": "2642",
            "personas()": "2406",
            "porcent()": "2408",
            "porcientos(uint256)": "4710",
            "precioRegistro()": "2452",
            "primervez(uint256)": "4644",
            "puntosRango(uint256)": "4754",
            "rangoReclamado(address,uint256)": "6505",
            "redimBNB()": "infinite",
            "redimTokenPrincipal02(uint256)": "infinite",
            "registro(address,string)": "infinite",
            "setContratoMigracion(address)": "26899",
            "setDescuento(uint256)": "24639",
            "setMIN_RETIRO(uint256)": "24714",
            "setPorcientos(uint256,uint256)": "infinite",
            "setPorcientosSalida(uint256,uint256)": "infinite",
            "setPrecioRegistro(uint256)": "24616",
            "setPriceBlock(uint256,bool)": "24734",
            "setPrimeravezPorcientos(uint256,uint256)": "infinite",
            "setRangos(bool[],uint256[],uint256[])": "infinite",
            "setRetorno(uint256)": "24739",
            "setTiempo(uint256)": "24694",
            "setTiempoUnidades(uint256)": "24648",
            "setWalletFee(address[],uint256[])": "infinite",
            "setWalletstransfers(address[],uint256[])": "infinite",
            "setduracionMembership(uint256)": "24662",
            "tiempo()": "infinite",
            "tokenPricipal()": "2492",
            "totalInvested()": "2430",
            "totalInvestors()": "2452",
            "totalRange()": "infinite",
            "totalRangeWitdrawl()": "infinite",
            "totalRefRewards()": "2473",
            "totalRefWitdrawl()": "2429",
            "totalRoiWitdrawl()": "2428",
            "totalTeamWitdrawl()": "2449",
            "transferOwnership(address)": "77606",
            "unidades()": "2452",
            "updateBloke(address,uint256,bool)": "infinite",
            "updateBlokeRange(address,uint256,bool)": "infinite",
            "upgradeImplementation(address)": "51140",
            "upgraded()": "2407",
            "usdtRetirado(uint256)": "2573",
            "valor(uint256)": "4643",
            "valorFee(uint256)": "4754",
            "version()": "2407",
            "wallet(uint256)": "4770",
            "walletFee(uint256)": "4769",
            "withdraw()": "infinite",
            "withdraw2()": "infinite",
            "withdrawTeam()": "infinite",
            "withdrawable(address,bool)": "infinite",
            "withdrawableRange(address)": "infinite"
        },
        "internal": {
            "_asignarBloke(address,uint256,bool)": "infinite",
            "rewardReferers(address,uint256,uint256[] memory)": "infinite"
        }
    }
}